:020000040800F2
:10000000B8080020450100086D130008ED11000834
:1000100069130008990100087D1400080000000021
:100020000000000000000000000000007513000840
:100030009D010008000000007113000879130008FA
:100040005F0100085F0100085F0100085F01000810
:100050005F0100085F0100085F0100085F01000800
:100060005F0100085F0100085F0100085F010008F0
:100070005F0100085F0100085F0100085F010008E0
:100080005F0100085F0100085F0100085F010008D0
:100090005F0100085F0100085F0100085F010008C0
:1000A0005F0100085F0100085F0100085F010008B0
:1000B0005F0100085F0100085F0100085F010008A0
:1000C0005F0100085F0100085F0100085F01000890
:1000D0005F010008411400085F0100087114000866
:1000E0005F0100085F0100085F0100085F01000870
:1000F0005F0100085F0100085F0100085F01000860
:100100005F0100085F0100085F0100085F0100084F
:100110005F0100085F0100085F0100085F0100083F
:100120005F0100085F0100085F0100085F0100082F
:10013000DFF80CD000F018F800480047E914000878
:10014000B80800200648804706480047FEE7FEE75B
:10015000FEE7FEE7FEE7FEE7FEE7FEE7FEE7FEE777
:100160007D130008310100081CB5094800900948BA
:1001700001900546009C06E0E06840F0010394E829
:10018000070098471034AC42F6D3FFF7D5FF0000C4
:100190007016000890160008FEE700007047000087
:1001A00080B525200021012200F048FA252000F02A
:1001B00033FA40F21800C2F200000068C16841F052
:1001C0006001C16080BD0000EFF3108072B600BF17
:1001D000FEE70000014690F82100022816D10868C9
:1001E000D1E90FC3026822F00E020260026822F019
:1001F00001020260012000FA03F2CCF8042081F829
:1002000021000020002281F820207047042088630C
:100210000120002281F820207047000090F8211072
:10022000022927D1026840F2040C1368C4F2020CC0
:1002300023F00E03136013680CF17C018A4223F053
:10024000010111601AD940F20841C4F202018A4248
:1002500050D040F21C41C4F202018A4242D040F226
:100260003041C4F202018A4248D14FF48073CCF885
:1002700000345CE004218163012070474321C4F213
:1002800002018A420EDD6B21C4F202018A421BDCAC
:100290004421C4F202018A423ED05821C4F2020134
:1002A0008A4223E00821C4F202018A4232D01C2192
:1002B000C4F202018A4237D03021C4F202018A42DC
:1002C00014D14FF4807230E06C21C4F202018A42F2
:1002D00026D08021C4F202018A4207D14FF08072F9
:1002E00023E000BF1023CCF8003420E04FF480322C
:1002F0001BE000BF0123CCF8003418E00CF5886146
:100300004FF480338A4208BF4FF48053CCF8003456
:100310000DE000BF012208E04FF4805205E000BF6D
:100320004FF4801201E000BF1022CCF80020416B96
:100330004FF480720029028404BF0020704780B50A
:100340008847002080BD00002DE9F04F82B00E6884
:10035000002E00F0E980A0F1804241F6004540F215
:100360000043A2F58432C4F201050624C4F201035D
:100370004FEAB227A84208BF05244FF0000E4FF005
:1003800001080F254FF0000A4FF0000B052F38BF72
:100390004FEAB224009408E00E680AF1010A36FA26
:1003A0000AF20EF1040E00F0BF8008FA0AFC16EA09
:1003B0000C09F1D04E684FF6FF72C1F2100296425E
:1003C00012DC122E56D8DFE806F0350B4D49555594
:1003D000555555555555555555555545510000BF21
:1003E000D1F80CB046E000BF4FF6FF72C1F2210217
:1003F00096420FDC0022C1F2110296421AD000226E
:10040000C1F21202964215D00022C1F22102964298
:1004100010D02FE00022C1F2220296420AD0002220
:10042000C1F23102964205D00022C1F23202964258
:1004300020D100BF8A684AB1012A14BFC0F814C095
:10044000C0F810C04FF0080B14E000BF4FF0040BD1
:1004500010E000BFCA6802F1040B0BE04FF0000B84
:1004600008E000BFCA6802F1080B03E0CA6802F1A5
:100470000C0B00BF02467446B9F5807F24BF0432DE
:10048000203C166805FA04F726EA07070BFA04F67B
:1004900037431760CA79D2067FF57EAF41F218075D
:1004A000C4F202073A684FF6084542F001023A608A
:1004B0003A68CFF6FF7502F001020192019A2AF024
:1004C00003021A440F2457590EF00C06B440A743F8
:1004D000009C04FA06F6374357514E680F25F20385
:1004E0001A6854BF22EA090242EA09021A605A68ED
:1004F000B70354BF22EA090242EA09025A60F7022E
:100500009A6854BF22EA090242EA0902B70240F29D
:100510000C479A60C4F201073A6854BF22EA090204
:1005200042EA09023A6037E702B0BDE8F08F000006
:10053000002A08BF090401617047000040F2B04082
:10054000C2F200000068704740F2080040F2B0417B
:10055000C2F20000C2F2000100780A68104408608C
:100560007047000080B542F20000C4F2020001684A
:1005700041F010010160032000F08CF8002000F031
:1005800005F800F027F8002080BD000070B540F2AB
:100590000806C2F2000640F210013278C2F20001F1
:1005A0004FF47A730968B3FBF2F20446B1FBF2F13F
:1005B000084600F085FB0F2C4FF0010508D838B92C
:1005C0004FF0FF3021460022002500F037F874601C
:1005D000284670BD82B041F21800C4F202000168E2
:1005E000022241F001010160016801F00101019165
:1005F0000199416841F080514160406800F08050AD
:10060000009000980420C4F20100016862F31A61AE
:10061000016002B070470000002848BF704700F03A
:100620001F01012202FA01F11C2202EAD0004EF25F
:100630000012CEF2000281507047000010B54EF655
:100640000C5CCEF2000CDCF80030C3F3022E8EF00E
:100650000704042C28BF0424BEF103034FF0FF3E1F
:100660000EFA04F438BF0023A14399400EFA03F3B5
:100670009A43114300F00F0200F160430901043A6C
:1006800003F564436244002848BF02F10C0319706B
:1006900010BD00004EF60C51CEF200010A684FF674
:1006A000FF031A4060F30A2242F0806040F0FD70C0
:1006B00008607047002804BF012070472DE9F0430F
:1006C00081B042F20008C4F202080446D8F80000E3
:1006D0000D4600F0070088420CD2D8F8000020F048
:1006E00007002843C8F80000D8F8000000F0070011
:1006F000A8426CD1206841F204098107C4F20209C2
:1007000017D5410705D5D9F8001041F4E061C9F8C3
:100710000010010705D5D9F8001041F46051C9F85F
:100720000010D9F80010A26821F0F0011143C9F8B7
:100730000010C00742D1D8F8000000F00700A8421E
:100740000CD9D8F8000020F007002843C8F80000B2
:10075000D8F8000000F00700A84238D1206841070F
:1007600007D5D9F80010E26821F4E0611143C9F817
:100770000010000708D5D9F80000216920F4605066
:1007800040EAC100C9F80000D9F8002002F00C00CE
:10079000082841F20020C0F27A004DD141F25E6398
:1007A000C2F38341C0F60003595CD20338D440F64B
:1007B0000010C0F23D0048433EE000BF606859F8B9
:1007C000041C022808D0012826D1890306D4012060
:1007D00001B0BDE8F08300BF8901F8D5D9F8001059
:1007E00021F003010843C9F80000FFF7A7FE064601
:1007F00041F28837D9F80000616800F00C00B0EBD6
:10080000810F98D0FFF79AFE801BB842F2D90320DF
:1008100001B0BDE8F08300BF8907D8D5DEE700BF8F
:10082000D9F8002041F24463C2F34042C0F600030D
:100830009A5C4843B0FBF2F0D9F8001041F24662EE
:10084000C1F30311C0F60002515C40F2100220FA1D
:1008500001F140F20C00C2F200000068C2F2000296
:100860001160FFF793FE002001B0BDE8F0830000A7
:1008700040F2100041F20401C2F20000C4F2020191
:100880000068096841F25662C1F30221C0F6000215
:10089000515CC8407047000040F2100041F2040172
:1008A000C2F20000C4F202010068096841F2566217
:1008B000C1F3C221C0F60002515CC840704700007D
:1008C000002804BF012070472DE9F04182B00446A2
:1008D000007841F20006C007C4F202060CD070682E
:1008E00000F00C00042840F081803068800303D5BC
:1008F0006068002800F04681207880071BD570686A
:1009000010F00C0F09D0706800F00C00082840F0BF
:1009100087807068C00300F183803068800703D54A
:100920002069012840F02E813068616920F0F800CC
:1009300040EAC10030602078000713D420784007D7
:100940002CD4E569002D00F01881706800F00C00CF
:10095000082840F0A780012D40F00481012002B05A
:10096000BDE8F081A069002800F084800020C4F276
:1009700042200121C0F88014FFF7E0FD054600BFCA
:10098000706A800700F1B280FFF7D8FD401B022893
:10099000F6D9032002B0BDE8F08100BFF0695FEA3C
:1009A000C00808D4F06940F08050F061F06900F0B0
:1009B00080500090009847F20007C4F200073868A2
:1009C000C00549D4386840F480703860FFF7B6FD40
:1009D000054600BF3868C0053ED4FFF7AFFD401B99
:1009E0006428F7D9032002B0BDE8F081706800F0F8
:1009F0000C00082803D17068C0033FF576AF61682A
:100A00003068002900F00C81B1F5A02F00F00081C2
:100A1000B1F5803F40F01A8140F480301CE100BF06
:100A20002069002840F20000C4F2422000F08880D3
:100A300001210160FFF782FD054600BF3068800795
:100A40003FF572AFFFF77AFD401B0228F6D903206D
:100A500002B0BDE8F08100BFE168306A002900F013
:100A60009D80052900F09280012940F0AF8040F080
:100A70000100B1E00020C4F242200021C0F880143F
:100A8000FFF75CFD054600BF706A80077FF556AF33
:100A9000FFF754FD401B0228F6D9032002B0BDE841
:100AA000F08100BF0027C4F2422700203866FFF71C
:100AB00045FD022D05460DD13068800140F1DE80F4
:100AC000FFF73CFD401B02284FF00300F4D902B0B1
:100AD000BDE8F081306880014FD5FFF72FFD401B46
:100AE00002284FF00300F5D9F1E700BF40F21000F3
:100AF000C2F20000006844F6D351C1F26201A0FBCB
:100B00000101480A019000BF00BF0198411E002862
:100B100001913FF413AF00BF0198411E00280191DD
:100B20003FF40CAF00BF0198411E002801913FF433
:100B300005AF00BF0198411E00280191E4D1FDE6F8
:100B400000210160FFF7FAFC054600BF306880070E
:100B50007FF5F1AEFFF7F2FC401B02284FF00300D7
:100B6000F4D9B4E77068216A00F480328A4209D16E
:100B7000616A00F47010884204D1002002B0BDE820
:100B8000F08100BF012002B0BDE8F08140F0040018
:100B90003062306A40F001001EE000BF20F001002A
:100BA0003062306A20F004003062FFF7C7FC05466F
:100BB00041F28837306A800720D5FFF7BFFC401B21
:100BC000B8424FF00300F5D981E700BF20F00100E3
:100BD0003062306A20F004003062FFF7AFFC054657
:100BE00041F28837306A800708D4FFF7A7FC401B22
:100BF000B842F7D9032002B0BDE8F081B8F1000F88
:100C00003FF59FAEF06920F08050F06199E600BF9B
:100C100040F480203060306840F480301CE000BF39
:100C200020F480303060306820F480203060FFF79E
:100C300085FC0546306880037FF55EAEFFF77EFCDD
:100C4000401B64284FF00300F4D940E720F48030C3
:100C50003060306820F480203060FFF76FFC05467C
:100C6000306880033FF548AEFFF768FC401B6428FE
:100C7000F6D9032002B0BDE8F08100BF206AB0F5CC
:100C8000803F05D17168A26821F400311143716081
:100C90007168626A21F47411114308437060012085
:100CA0003866FFF74BFC0446306880013FF565AFBE
:100CB000FFF744FC001B02284FF00300F4D906E7BD
:100CC000411E0020B0EB116F1CBF012070474EF297
:100CD0001002CEF2000251604EF62351CEF2000116
:100CE000F0230B700721906011607047704700007F
:100CF00070470000B0B582B005682968EC686A6981
:100D000001F02F03202B04F0200305D123B102B002
:100D1000BDE8B04000F03ABB5FEA017C1EBF02F0C4
:100D2000010E04F4907212EB0E0241D1026BCB065D
:100D300018D5012A16D114F0100213D00021019108
:100D4000296801916968019101996969490649D445
:100D5000818DC38DC28D002A18BF994240F0DE807C
:100D600002B0B0BD0A062BD514F0800228D090F84E
:100D70003D102129F4D18168B1F5805F03D101696B
:100D8000002900F0E980016A4A1C02620978696062
:100D9000C18C01390A04C184E2D1E86820F08000E6
:100DA000E860E86840F04000E86002B0B0BD00BF15
:100DB000CA0718BF14F4807244D14A0748D44EE0E1
:100DC0004906CDD514F04001CAD0E96821F04001B0
:100DD000E960202180F83D1002B0BDE8B04000F08D
:100DE000F5B900BF816B0A68526894B2002CB7D085
:100DF000838D9C42B4D2C2858A69202A1AD0EA68BF
:100E0000044622F48072EA606A6922F001026A6193
:100E10006A6922F040026A61202280F83E200022A6
:100E20000263EA68084622F01002EA60FFF7D2F98E
:100E3000A38D2046C18D591A89B202B0BDE8B040D9
:100E4000FFF754BF026C42F0010202644A0706D564
:100E5000BEF1000F03D0026C42F0020202648A0766
:100E600006D5BEF1000F03D0026C42F0040202640A
:100E7000BCF1000F06D55EEA030203D0026C42F01B
:100E800008020264026C002A3FF46AAF890605D5A5
:100E900023B1044600F07AFA256820466969026C9D
:100EA00001F0400102F0080289182FD0E96821F40E
:100EB0009071E960696921F001016961016B0129A3
:100EC00003D1E96821F01001E960202180F83E108B
:100ED000002101636969490638D5696921F040013B
:100EE0006961816B91B341F28132C0F60002044620
:100EF00008464A63FFF792F900283FF431AFA06B30
:100F0000416B02B0BDE8B040084700BF0446FFF7A0
:100F1000EFFE0020206402B0B0BD00BFEA68C91A2D
:100F200022F49072EA606A6989B222F001026A6171
:100F3000202280F83E2000220263EA6822F010029C
:100F4000EA6002B0BDE8B040FFF7D0BE02B0BDE835
:100F5000B040FFF7CDBE00BF016A31F8022B6FF33E
:100F60005F226A60016213E7002804BF0120704716
:100F700010B5044690F83D0028B9002084F83C00E4
:100F8000204600F061F8242084F83D002068D4E970
:100F90000212C36823F40053C360036923F440536F
:100FA0001A430261D4E904231143C268194341F290
:100FB0000C639A431143C1604169A26921F44071F5
:100FC000114343F60002C4F201029042416103D092
:100FD000FFF74EFC02E000BFFFF75EFCD4E9002300
:100FE000192148439900B0FBF1F048F21F5CC5F2AB
:100FF000EB1CA0FB0C314FF69C734909C0F6FF7344
:1010000001FB0300322303EB0010A0FB0C03F020D4
:1010100000EA531000EB0110C3F343110844906041
:101020001069202120F490401061506920F02A00BE
:101030005061D06840F40050D0600020206484F8F3
:101040003D1084F83E1010BD70B586B0006844F6BF
:101050000001C4F20001002688420596CDE903662E
:10106000029639D043F60001C4F20101884275D1DD
:1010700041F21800C4F20200016840F6000441F495
:10108000804101600168C4F2010401F480410191D2
:101090000199016802AD41F0040101600068294630
:1010A00000F00400019001984FF4007002900220BB
:1010B0000390032005902046FFF746F94FF4806027
:1010C0000290002003900120049020462946FFF75B
:1010D0003BF906B070BD00BF41F21800C4F2020037
:1010E000416802AD41F480214160416801F48021F2
:1010F00001910199016841F02001016000682946D1
:1011000000F02000019001984FF4807002900220BE
:1011100003900320059040F60000C4F2010000F5A2
:1011200040642046FFF710F94FF40070CDE9020645
:10113000204629460496FFF707F90420C4F201006F
:101140000168002241F0E06141F030010160272098
:101150000021FFF773FA2720FFF75EFA06B070BD93
:10116000006843F60001C4F20101884218BF7047CD
:1011700040F2A000C2F2000001210170704700009F
:1011800090F83D30202B0BD100294FF0010318BF00
:10119000002A01D11846704790F83C30012B03D14A
:1011A00002231846704700BF016200232121828478
:1011B000C284036480F83D10016880F83C30C86840
:1011C00040F08000C860184670470000006843F691
:1011D0000001C4F20101884218BF704740F2AC40E0
:1011E000C2F200000121017070470000FEE700001C
:1011F0002DE9F04F85B04FF0000841F21800CDE91D
:101200000388CDE90188C4F20200016841F6000AB2
:1012100041F0400101600168C4F2010A01F040019F
:10122000009100990168012241F0100101600168FC
:10123000402701F01001009100990168012441F05C
:1012400080010160016801F080010091009901684E
:1012500041F020010160016801F020010091009936
:10126000016841F0040101600068402100F00400C1
:10127000009000985046FFF75BF90AF5806630460B
:101280004FF4786101224FF47869FFF751F9AAF51C
:101290000065284640210122FFF74AF9CDE9017493
:1012A00001AF4FF0030B504639460394CDF810B010
:1012B000FFF74AF830463946CDE90194CDE9034BB2
:1012C000FFF742F84FF44040CDE901085046394657
:1012D0000394FFF739F84020CDE901042846394648
:1012E000CDE9034BFFF730F805B0BDE8F08F000003
:1012F00080B540F2180043F60001C2F20000C4F2CB
:10130000010100234FF00C0C4FF4E13280E80E0095
:10131000C0E90333C0E905C3C361FFF725FE002818
:1013200008BF80BDBDE88040FEF74EBF80B540F2EB
:101330005C0044F60001C2F20000C4F20001002388
:101340004FF00C0C4FF4E13280E80E00C0E903339B
:10135000C0E905C3C361FFF707FE002808BF80BDD1
:10136000BDE88040FEF730BFFEE70000FEE700006A
:101370007047000070470000FFF7E6B870470000B4
:10138000406A0021C185C184FFF7B2BC90F83E10CD
:10139000222918BF704783680246B3F5805F09D1E0
:1013A00052F8281F52F8183C002B41D003685B68A4
:1013B0000AE000BF52F8281F13B90369002BF5D0CB
:1013C00003685B6803F07F030B70116801311160E3
:1013D000C18D01390A04C18500D070470168CA680F
:1013E00022F02002CA60CA6822F48072CA604A6988
:1013F00022F001024A61202280F83E20026B012A7D
:1014000018BFFFF7ADBE00220263CB6823F01003C4
:10141000CB600B68DB0607D581B000920A680092AA
:1014200049680091009901B0818DFFF75FBC00BF52
:10143000026852686FF35F2221F8022B8162C7E7CE
:1014400043F60000C4F20100016889060AD580B5A0
:10145000406840F2A401C0B2C2F2000100F0B8F846
:10146000BDE8804040F21800C2F20000FFF742BC25
:1014700040F25C00C2F20000FFF73CBCFEE7000057
:10148000B0B582B040F2A4040020C2F200040DF115
:1014900007058DF8070000BF2846214600F082F8B6
:1014A0000028F9D19DF8070002B0B0BD10B582B098
:1014B00040F2AC440190C2F200040020207040F2DF
:1014C0001800C2F2000001A90122FFF759FE00BF77
:1014D000207830B9207820B9207810B920780028F9
:1014E000F6D002B010BD000090B0FFF73BF800242A
:1014F0000120CDE90B44CDE9094406900A904FF450
:10150000E0104FF4803102250F9006A8CDE90714B2
:10151000CDE90D51FFF7D4F920B1EFF3108072B689
:10152000FEE700BF0F20CDE901054FF48060CDE953
:10153000040401A802210394FFF7BCF820B1EFF3E3
:10154000108072B6FEE700BFFFF752FEFFF7D0FE35
:10155000FFF7ECFE40F2A400C2F2000000F01CF81D
:10156000FEF71EFE08A000F05BF840F20004C2F295
:10157000000400BF204600F04AF8C0B20028F9D0AD
:1015800000F048F8F6E700BF48656C6C6F20576FB5
:10159000726C64210D0000000021C0F80014C0F836
:1015A00004147047D1F80424D1F800349A4204BFDF
:1015B0004FF0FF307047D1F804248A5C0270D1F8F4
:1015C000040401306FF39F20C1F804040020704729
:1015D000D1F80024D1F8043401326FF39F229A42EB
:1015E00008BF7047D1F80034C854C1F800247047D0
:1015F00002E008C8121F08C1002AFAD170477047DC
:10160000002001E001C1121F002AFBD17047FFF743
:1016100037BF00000149FFF749BF00000400002068
:1016200010B5044601E0FFF741FF14F8010B04492F
:101630000028F8D1BDE810400A20FFF737BF0000AE
:101640000400002001020000000000000000010270
:101650000304060708090000000001020304020356
:101660000405060708090A0B0C0D0E0F10100000E8
:10167000901600080000002018000000F015000877
:10168000A816000818000020A00800000016000896
:101690000000000000000000010000001000000039
:0816A0000024F400000000002A
:0400000508000131BD
:00000001FF
