:020000040800F2
:10000000D807002045010008251A000899180008A3
:10001000211A0008D1050008651D00080000000035
:10002000000000000000000000000000BD1A0008F1
:10003000E905000800000000391A0008C11A00088C
:100040005F0100085F0100085F0100085F01000810
:100050005F0100085F0100085F0100085F01000800
:100060005F0100085F0100085F0100085F010008F0
:100070005F0100085F0100085F0100085F010008E0
:100080005F0100085F0100085F0100085F010008D0
:100090005F0100085F0100085F0100085F010008C0
:1000A0005F0100085F0100085F0100085F010008B0
:1000B0005F0100085F0100085F0100085F010008A0
:1000C0005F0100085F0100085F0100085F01000890
:1000D0005F010008C91B00085F010008F91B000848
:1000E0005D0700085F0100085F0100085F0100086C
:1000F0005F0100085F0100085F0100085F01000860
:100100005F0100085F0100085F0100085F0100084F
:100110005F0100085F0100085F0100085F0100083F
:100120005F0100085F0100085F0100085F0100082F
:10013000DFF80CD000F05EF800480047CD1D000845
:10014000D80700200648804706480047FEE7FEE73C
:10015000FEE7FEE7FEE7FEE7FEE7FEE7FEE7FEE777
:10016000C51A00083101000830B505462A460B467D
:1001700012F8010B13F8014B08B1A042F8D01CB1E2
:10018000002802D06D1CF1E7284630BD421C10F853
:10019000011B0029FBD1801A704710B5002200E036
:1001A000521C835C8C5CA34201D1002BF8D1D8B2E5
:1001B000E1B2401A10BD034611F8012B00F8012BE3
:1001C000002AF9D11846704730B50B460146002089
:1001D0002022012409E021FA02F59D4205D303FA09
:1001E00002F5491B04FA02F52844151EA2F101028A
:1001F000F1DC30BD1CB50948009009480190054666
:10020000009C06E0E06840F0010394E8070098478E
:100210001034AC42F6D3FFF78FFF0000082300082C
:10022000282300082DE9F04F99B005460C463FA061
:10023000294601F007FF40F2F40AC2F2000ADAF898
:10024000000081688847DAF800602846F768FFF701
:100250009DFF024630462946B847DAF8000042F2D0
:10026000F921C368C0F600010222984701F018FB8B
:10027000002C47D06E4642F2EF29054606F1010BED
:100280004FF00008C0F600090BE000BF4FF0000877
:1002900008F1010801F004FBA842C4BF013C054677
:1002A00084B3DAF8000006EB080702693946904784
:1002B0000028EFD116F8080001F0DAFFB8F1000FBE
:1002C000E4D017F8010C0D28E2D138780A28DFD1E4
:1002D0000027304649460BF80870FFF745FFE8B99C
:1002E00042F2F4213046C0F60001FFF73DFF00283E
:1002F000CCD04FF0FF3715A001F0C0FF384619B041
:10030000BDE8F08F42F2FC206FF00107C0F600005C
:1003100001F0B4FF384619B0BDE8F08F09A001F034
:10032000ADFF384619B0BDE8F08F00BF53656E646D
:10033000204154436F6D6D616E643A2025730D0A40
:1003400000000000204F4B0D0000000020455252DD
:100350004F520D002DE9F04F81B040F2F40AC2F285
:10036000000A1446DAF800200D4691680646104649
:100370008847DAF800703046D7F80C80FFF706FFA0
:10038000024638463146C047DAF8000042F2F92109
:10039000C368C0F600010222984701F081FA002CE0
:1003A0003ED042F2EF29064605F1010B4FF000085E
:1003B000C0F6000909E000BF08F1010801F070FA79
:1003C000B042C4BF013C064654B3DAF8000005EB66
:1003D00008070269394690470028EFD1B8F1000FAD
:1003E000EAD017F8010C0D28E6D138780A28E3D1B5
:1003F0000027284649460BF80870FFF7B5FE50B9AC
:1004000042F2F4212846C0F60001FFF7ADFE0028B5
:10041000D2D04FF0FF37384601B0BDE8F08F00BFB3
:100420006FF00107384601B0BDE8F08F2DE9F04FBD
:100430009BB015460C46019001F032FA002D00F0F9
:100440009F800DF1080B07460BF101084FF0000AE1
:100450004FF000090026009418E000BF09F10109DF
:1004600000200BF8090058464DA1FFF77DFE064617
:1004700000281CBF4FF00009012600BF01F010FA50
:10048000B842C4BF013D0746002D79D040F2F400C8
:10049000C2F2000000680BEB090402692146904794
:1004A0000028EBD1F0B2022838D00128D6D120782C
:1004B0003A283DD1B9F1010F41F2D04E5BDB5FEA42
:1004C000990039D020F060400021A1EB800C6FF042
:1004D000030000BF08EB0003DE780AEB8A021C79F8
:1004E00006EB420202EB8202597904EB420202EB74
:1004F000820201EB42019B79A1F5965101EB81014A
:10050000043003EB41010CEB00020432A1EB0E0AB4
:10051000E0D1043019F003012DD011E01BF80900DF
:10052000019901F8090009F10109D14525D12DE012
:1005300009F101090126A1E7002019F003011AD0F1
:100540001BF800200AEB8A0302EB43020129A2F107
:10055000300A10D0584442780AEB8A0302EB430277
:100560000229A2F1300A06D080780AEB8A0100EB5A
:100570004100A0F1300A4FF0000902267EE700BFDB
:100580006FF001001BB0BDE8F08F00BF009800289D
:1005900018BFC0F800A000201BB0BDE8F08F00BF5E
:1005A0002B4950442C00000080B500F011F940F2B6
:1005B000F4014268C2F2000108609047002080BD4B
:1005C00040F21000C2F2000001F02EBAFFF7F8BFAF
:1005D000FEE7000000F0C4B900F006BB80B501F0F2
:1005E00029FB002080BD00007047000001A00A2107
:1005F000FFF718BE41542B434950434C4F5345001D
:1006000010B59AB001AC13460A4605A1204601F088
:1006100029FD204642F21071FFF704FE1AB010BD0A
:1006200041542B43574A41503D222573222C222509
:100630007322000010B59AB001AC05A1204601F06C
:1006400011FD20460A21FFF7EDFD1AB010BD00BFD5
:1006500041542B43495053544152543D2255445028
:10066000222C223139322E3136382E312E31222CA5
:10067000383038302C25642C3200000070B5B2B010
:100680000E4605461DA0694642F21072FFF762FE53
:1006900020B14FF0FF3032B070BD00BF1AA16846E4
:1006A000FFF762FD0028F4D0817B4FF0000C222977
:1006B0004FF0000319D000BFEA181171C118CC7BAC
:1006C000222C0DD054710C7C222C0BD094714C7CBC
:1006D000222C09D0D471897C04332229ECD104E086
:1006E000013302E0023300E00333291D304601F8F4
:1006F00003C0FFF760FD002032B070BD41542B43B2
:1007000049465352000000002B43494653523A5386
:10071000544149502C22000080B5FFF745FF05A049
:100720000A21FFF77FFD06A00A21FFF77BFD0020CD
:1007300080BD00BF41542B43574D4F44453D3300CE
:1007400041542B4349504D55583D30000846114601
:100750001A46FFF76BBE00000020704780B54FF4CB
:10076000804000F035F94FF40040BDE8804000F0D3
:100770002FB9000080B525200021012200F0B4FA35
:10078000252000F09FFA40F2BC20C2F20000006871
:10079000C16841F06001C16080BD000080B52720C4
:1007A0000021012200F0A0FA272000F08BFA40F28D
:1007B0000030C2F200000068C16841F02001C16051
:1007C00080BD0000EFF3108072B600BFFEE70000AE
:1007D00040F25000C2F200007047000001F0C4BABD
:1007E00040F26C00C2F2000070470000014690F831
:1007F0002100022816D10868D1E90FC3026822F04F
:100800000E020260026822F001020260012000FA7A
:1008100003F2CCF8042081F821000020002281F8A6
:1008200020207047042088630120002281F82020C6
:100830007047000090F82110022927D1026840F289
:10084000040C1368C4F2020C23F00E031360136847
:100850000CF17C018A4223F0010111601AD940F2A7
:100860000841C4F202018A4250D040F21C41C4F255
:1008700002018A4242D040F23041C4F202018A426F
:1008800048D14FF48073CCF800345CE004218163DC
:10089000012070474321C4F202018A420EDD6B2120
:1008A000C4F202018A421BDC4421C4F202018A42E2
:1008B0003ED05821C4F202018A4223E00821C4F24A
:1008C00002018A4232D01C21C4F202018A4237D08E
:1008D0003021C4F202018A4214D14FF4807230E018
:1008E0006C21C4F202018A4226D08021C4F20201A6
:1008F0008A4207D14FF0807223E000BF1023CCF86A
:10090000003420E04FF480321BE000BF0123CCF81C
:10091000003418E00CF588614FF480338A4208BF38
:100920004FF48053CCF800340DE000BF012208E002
:100930004FF4805205E000BF4FF4801201E000BF89
:100940001022CCF80020416B4FF480720029028401
:1009500004BF0020704780B58847002080BD00009C
:10096000B0B5044600F040F9054640F20400C2F27A
:1009700000000078611C18BF044400BF00F034F987
:10098000401BA042FAD3B0BDB0B58CB00446B0F560
:10099000804F05D0B4F5004F18D1022501E000BF0B
:1009A000012500F07DFF019000208DF8080041F640
:1009B0000000C4F201002146059500F009F9B0FAE3
:1009C00080F04009069001A801F038F80CB0B0BDE5
:1009D00040F21441C4F201010A68024214BF0860E7
:1009E0007047FFF7D1BF00002DE9F04F82B00E68CD
:1009F000002E00F0E980A0F1804241F6004540F26F
:100A00000043A2F58432C4F201050624C4F20103B6
:100A10004FEAB227A84208BF05244FF0000E4FF05E
:100A200001080F254FF0000A4FF0000B052F38BFCB
:100A30004FEAB224009408E00E680AF1010A36FA7F
:100A40000AF20EF1040E00F0BF8008FA0AFC16EA62
:100A50000C09F1D04E684FF6FF72C1F210029642B7
:100A600012DC122E56D8DFE806F0350B4D495555ED
:100A7000555555555555555555555545510000BF7A
:100A8000D1F80CB046E000BF4FF6FF72C1F2210270
:100A900096420FDC0022C1F2110296421AD00022C7
:100AA000C1F21202964215D00022C1F221029642F2
:100AB00010D02FE00022C1F2220296420AD000227A
:100AC000C1F23102964205D00022C1F232029642B2
:100AD00020D100BF8A684AB1012A14BFC0F814C0EF
:100AE000C0F810C04FF0080B14E000BF4FF0040B2B
:100AF00010E000BFCA6802F1040B0BE04FF0000BDE
:100B000008E000BFCA6802F1080B03E0CA6802F1FE
:100B10000C0B00BF02467446B9F5807F24BF043237
:100B2000203C166805FA04F726EA07070BFA04F6D4
:100B300037431760CA79D2067FF57EAF41F21807B6
:100B4000C4F202073A684FF6084542F001023A60E3
:100B50003A68CFF6FF7502F001020192019A2AF07D
:100B600003021A440F2457590EF00C06B440A74351
:100B7000009C04FA06F6374357514E680F25F203DE
:100B80001A6854BF22EA090242EA09021A605A6846
:100B9000B70354BF22EA090242EA09025A60F70287
:100BA0009A6854BF22EA090242EA0902B70240F2F7
:100BB0000C479A60C4F201073A6854BF22EA09025E
:100BC00042EA09023A6037E702B0BDE8F08F000060
:100BD0008068084018BF012070470000002A08BF45
:100BE000090401617047000040F2D430C2F20000F5
:100BF0000068704740F2040040F2D431C2F20000B5
:100C0000C2F2000100780A681044086070470000D2
:100C100080B542F20000C4F20200016841F0100108
:100C20000160032000F08CF8002000F005F800F0CF
:100C300027F8002080BD000070B540F20406C2F223
:100C4000000640F20C013278C2F200014FF47A73D0
:100C50000968B3FBF2F20446B1FBF2F1084600F07A
:100C600085FB0F2C4FF0010508D838B94FF0FF3045
:100C700021460022002500F037F87460284670BD38
:100C800082B041F21800C4F202000168022241F071
:100C900001010160016801F00101019101994168C0
:100CA00041F080514160406800F080500090009811
:100CB0000420C4F20100016862F31A61016002B00D
:100CC00070470000002848BF704700F01F01012254
:100CD00002FA01F11C2202EAD0004EF20012CEF21A
:100CE000000281507047000010B54EF60C5CCEF249
:100CF000000CDCF80030C3F3022E8EF00704042C45
:100D000028BF0424BEF103034FF0FF3E0EFA04F4A3
:100D100038BF0023A14399400EFA03F39A431143CD
:100D200000F00F0200F160430901043A03F5644347
:100D30006244002848BF02F10C03197010BD000086
:100D40004EF60C51CEF200010A684FF6FF031A402E
:100D500060F30A2242F0806040F0FD700860704746
:100D6000002804BF012070472DE9F04381B042F212
:100D70000008C4F202080446D8F800000D4600F04E
:100D8000070088420CD2D8F8000020F00700284362
:100D9000C8F80000D8F8000000F00700A8426CD1A5
:100DA000206841F204098107C4F2020917D54107FE
:100DB00005D5D9F8001041F4E061C9F80010010729
:100DC00005D5D9F8001041F46051C9F80010D9F8E0
:100DD0000010A26821F0F0011143C9F80010C0070B
:100DE00042D1D8F8000000F00700A8420CD9D8F88A
:100DF000000020F007002843C8F80000D8F80000E1
:100E000000F00700A84238D12068410707D5D9F87B
:100E10000010E26821F4E0611143C9F800100007F6
:100E200008D5D9F80000216920F4605040EAC100DB
:100E3000C9F80000D9F8002002F00C00082841F29F
:100E40000020C0F27A004DD142F2BA23C2F38341AE
:100E5000C0F60003595CD20338D440F60010C0F24B
:100E60003D0048433EE000BF606859F8041C02287A
:100E700008D0012826D1890306D4012001B0BDE89D
:100E8000F08300BF8901F8D5D9F8001021F00301E3
:100E90000843C9F80000FFF7A7FE064641F288376D
:100EA000D9F80000616800F00C00B0EB810F98D019
:100EB000FFF79AFE801BB842F2D9032001B0BDE8CB
:100EC000F08300BF8907D8D5DEE700BFD9F800203E
:100ED00042F2A023C2F34042C0F600039A5C4843AA
:100EE000B0FBF2F0D9F8001042F2A222C1F30311D4
:100EF000C0F60002515C40F20C0220FA01F140F20F
:100F00000800C2F200000068C2F200021160FFF7A0
:100F100093FE002001B0BDE8F083000040F20C0019
:100F200041F20401C2F20000C4F202010068096843
:100F300042F2B222C1F30221C0F60002515CC84065
:100F40007047000040F20C0041F20401C2F20000C0
:100F5000C4F202010068096842F2B222C1F3C22160
:100F6000C0F60002515CC84070470000002804BF72
:100F7000012070472DE9F04182B00446007841F22B
:100F80000006C007C4F202060CD0706800F00C0026
:100F9000042840F081803068800303D56068002811
:100FA00000F04681207880071BD5706810F00C0F88
:100FB00009D0706800F00C00082840F08780706845
:100FC000C00300F183803068800703D520690128C1
:100FD00040F02E813068616920F0F80040EAC100DD
:100FE00030602078000713D4207840072CD4E569BE
:100FF000002D00F01881706800F00C00082840F007
:10100000A780012D40F00481012002B0BDE8F081ED
:10101000A069002800F084800020C4F24220012151
:10102000C0F88014FFF7E0FD054600BF706A800736
:1010300000F1B280FFF7D8FD401B0228F6D903204B
:1010400002B0BDE8F08100BFF0695FEAC00808D4D3
:10105000F06940F08050F061F06900F0805000903D
:10106000009847F20007C4F200073868C00549D469
:10107000386840F480703860FFF7B6FD054600BF61
:101080003868C0053ED4FFF7AFFD401B6428F7D990
:10109000032002B0BDE8F081706800F00C00082861
:1010A00003D17068C0033FF576AF616830680029EE
:1010B00000F00C81B1F5A02F00F00081B1F5803F68
:1010C00040F01A8140F480301CE100BF2069002804
:1010D00040F20000C4F2422000F08880012101604B
:1010E000FFF782FD054600BF306880073FF572AF0D
:1010F000FFF77AFD401B0228F6D9032002B0BDE8B5
:10110000F08100BFE168306A002900F09D80052968
:1011100000F09280012940F0AF8040F00100B1E082
:101120000020C4F242200021C0F88014FFF75CFDCB
:10113000054600BF706A80077FF556AFFFF754FD84
:10114000401B0228F6D9032002B0BDE8F08100BFA1
:101150000027C4F2422700203866FFF745FD022D24
:1011600005460DD13068800140F1DE80FFF73CFD7F
:10117000401B02284FF00300F4D902B0BDE8F08113
:10118000306880014FD5FFF72FFD401B02284FF03C
:101190000300F5D9F1E700BF40F20C00C2F20000F5
:1011A000006844F6D351C1F26201A0FB0101480A74
:1011B000019000BF00BF0198411E002801913FF43B
:1011C00013AF00BF0198411E002801913FF40CAFFE
:1011D00000BF0198411E002801913FF405AF00BFF8
:1011E0000198411E00280191E4D1FDE60021016033
:1011F000FFF7FAFC054600BF306880077FF5F1AEC7
:10120000FFF7F2FC401B02284FF00300F4D9B4E7CB
:101210007068216A00F480328A4209D1616A00F460
:101220007010884204D1002002B0BDE8F08100BFF8
:10123000012002B0BDE8F08140F004003062306A65
:1012400040F001001EE000BF20F001003062306A73
:1012500020F004003062FFF7C7FC054641F28837F2
:10126000306A800720D5FFF7BFFC401BB8424FF023
:101270000300F5D981E700BF20F001003062306A39
:1012800020F004003062FFF7AFFC054641F28837DA
:10129000306A800708D4FFF7A7FC401BB842F7D993
:1012A000032002B0BDE8F081B8F1000F3FF59FAE1A
:1012B000F06920F08050F06199E600BF40F4802092
:1012C0003060306840F480301CE000BF20F4803093
:1012D0003060306820F480203060FFF785FC0546E0
:1012E000306880037FF55EAEFFF77EFC401B64280C
:1012F0004FF00300F4D940E720F4803030603068CC
:1013000020F480203060FFF76FFC054630688003D2
:101310003FF548AEFFF768FC401B6428F6D9032070
:1013200002B0BDE8F08100BF206AB0F5803F05D172
:101330007168A26821F40031114371607168626ABA
:1013400021F4741111430843706001203866FFF7DF
:101350004BFC0446306880013FF565AFFFF744FC65
:10136000001B02284FF00300F4D906E7411E0020BD
:10137000B0EB116F1CBF012070474EF21002CEF28D
:10138000000251604EF62351CEF20001F0230B70A3
:10139000072190601160704770470000704700009F
:1013A000B0B582B005682968EC686A6901F02F035E
:1013B000202B04F0200305D123B102B0BDE8B040DA
:1013C00000F0A8BB5FEA017C1EBF02F0010E04F42E
:1013D000907212EB0E0241D1026BCB0618D5012A96
:1013E00016D114F0100213D0002101912968019147
:1013F0006968019101996969490649D4818DC38D54
:10140000C28D002A18BF994240F0DE8002B0B0BD04
:101410000A062BD514F0800228D090F83D1021291F
:10142000F4D18168B1F5805F03D10169002900F032
:10143000E980016A4A1C026209786960C18C01393D
:101440000A04C184E2D1E86820F08000E860E8681E
:1014500040F04000E86002B0B0BD00BFCA0718BF4E
:1014600014F4807244D14A0748D44EE04906CDD5E1
:1014700014F04001CAD0E96821F04001E960202160
:1014800080F83D1002B0BDE8B04000F0F5B900BFF3
:10149000816B0A68526894B2002CB7D0838D9C424D
:1014A000B4D2C2858A69202A1AD0EA68044622F496
:1014B0008072EA606A6922F001026A616A6922F058
:1014C00040026A61202280F83E2000220263EA681E
:1014D000084622F01002EA60FFF788F9A38D204643
:1014E000C18D591A89B202B0BDE8B040FFF754BFB0
:1014F000026C42F0010202644A0706D5BEF1000FF9
:1015000003D0026C42F0020202648A0706D5BEF1E3
:10151000000F03D0026C42F004020264BCF1000F21
:1015200006D55EEA030203D0026C42F008020264B0
:10153000026C002A3FF46AAF890605D523B1044640
:1015400000F0E8FA256820466969026C01F0400164
:1015500002F0080289182FD0E96821F49071E9603F
:10156000696921F001016961016B012903D1E96811
:1015700021F01001E960202180F83E100021016374
:101580006969490638D5696921F040016961816B53
:1015900091B341F60932C0F60002044608464A6398
:1015A000FFF748F900283FF431AFA06B416B02B060
:1015B000BDE8B040084700BF0446FFF7EFFE00203B
:1015C000206402B0B0BD00BFEA68C91A22F490726C
:1015D000EA606A6989B222F001026A61202280F819
:1015E0003E2000220263EA6822F01002EA6002B0A4
:1015F000BDE8B040FFF7D0BE02B0BDE8B040FFF795
:10160000CDBE00BF016A31F8022B6FF35F226A6022
:10161000016213E7002804BF0120704710B504469B
:1016200090F83D0028B9002084F83C00204600F0E6
:1016300061F8242084F83D002068D4E90212C368D0
:1016400023F40053C360036923F440531A43026137
:10165000D4E904231143C268194341F20C639A434D
:101660001143C1604169A26921F44071114343F6FD
:101670000002C4F201029042416103D0FFF74EFC28
:1016800002E000BFFFF75EFCD4E9002319214843C4
:101690009900B0FBF1F048F21F5CC5F2EB1CA0FB17
:1016A0000C314FF69C734909C0F6FF7301FB030030
:1016B000322303EB0010A0FB0C03F02000EA5310D0
:1016C00000EB0110C3F3431108449060106920211E
:1016D00020F490401061506920F02A005061D068D9
:1016E00040F40050D0600020206484F83D1084F85D
:1016F0003E1010BD70B586B0006844F60001C4F21B
:101700000001002688420596CDE90366029639D08D
:1017100043F60001C4F20101884275D141F218007C
:10172000C4F20200016840F6000441F48041016007
:101730000168C4F2010401F480410191019901683A
:1017400002AD41F0040101600068294600F0040088
:10175000019001984FF40070029002200390032042
:1017600005902046FFF740F94FF48060029000207A
:1017700003900120049020462946FFF735F906B072
:1017800070BD00BF41F21800C4F20200416802AD12
:1017900041F480214160416801F480210191019967
:1017A000016841F0200101600068294600F0200036
:1017B000019001984FF48070029002200390032062
:1017C000059040F60000C4F2010000F54064204698
:1017D000FFF70AF94FF40070CDE9020620462946CA
:1017E0000496FFF701F90420C4F201000168002209
:1017F00041F0E06141F03001016027200021FFF756
:1018000073FA2720FFF75EFA06B070BD006843F652
:101810000001C4F20101884218BF704740F2443011
:10182000C2F20000012101707047000090F83D30C5
:10183000202B0BD100294FF0010318BF002A01D142
:101840001846704790F83C30012B03D1022318460C
:10185000704700BF0162002321218284C284036497
:1018600080F83D10016880F83C30C86840F0800086
:10187000C860184670470000006843F60001C4F2D3
:101880000101884218BF704740F2D030C2F2000018
:101890000121017070470000FEE70000FEF79ABECC
:1018A000FEF79ABEFEF79ABE2DE9F04F85B04FF0D5
:1018B000000841F21800CDE90388CDE90188C4F29F
:1018C0000200016841F6000A41F040010160016830
:1018D000C4F2010A01F0400100910099016801225F
:1018E00041F0100101600168402701F010010091F2
:1018F00000990168012441F080010160016801F054
:10190000800100910099016841F0200101600168A7
:1019100001F0200100910099016841F0040101608B
:101920000068402100F00400009000985046FFF746
:1019300055F90AF5806630464FF4786101224FF47C
:101940007869FFF74BF9AAF5006528464021012286
:10195000FFF744F9CDE9017401AF4FF0030B504696
:1019600039460394CDF810B0FFF73EF830463946BB
:10197000CDE90194CDE9034BFFF736F84FF4404031
:10198000CDE90108504639460394FFF72DF8402071
:10199000CDE9010428463946CDE9034BFFF724F889
:1019A00005B0BDE8F08F000080B540F2BC2043F6E2
:1019B0000001C2F20000C4F2010100234FF00C0C40
:1019C0004FF4E13280E80E00C0E90333C0E905C3FB
:1019D000C361FFF71FFE002808BF80BDBDE880403F
:1019E000FEF7F0BE80B540F2003044F60001C2F2CE
:1019F0000000C4F2000100234FF00C0C4FF4E13260
:101A000080E80E00C0E90333C0E905C3C361FFF7F6
:101A100001FE002808BF80BDBDE88040FEF7D2BEB1
:101A2000FEE70000FEE7000040F2F801C2F200010C
:101A30000A680860C26370477047000040F2FC0CFF
:101A4000C2F2000CDCF8B82178B14CF6CD4301327B
:101A5000CCF6CC43A2FB0331C90801EB8101DCF8D1
:101A6000BC31A2EB41029A4202D14FF0FF307047E5
:101A70002DE9F041DCF8B8114FF02C0E01FB0EC33C
:101A800001FB0EF1D0E904E4D0E90058D0E9027678
:101A90004CF801505C61C3E9036EC3E90187D0E9EA
:101AA0000617466A856A006AC3E90965186200205C
:101AB000C3E90617CCF8B821BDE8F08170470000F3
:101AC000FFF798B87047000080B540F26C00C2F292
:101AD000000000F08BFA002080BD000040F26C0096
:101AE000C2F200000021C0F88010C0F884107047D6
:101AF000084640F26C01C2F2000100F07DBA00001D
:101B000008461146FFF7CEBE406A0021C185C18458
:101B1000FFF744BC90F83E10222918BF7047836835
:101B20000246B3F5805F09D152F8281F52F8183CDD
:101B3000002B41D003685B680AE000BF52F8281F01
:101B400013B90369002BF5D003685B6803F07F03CA
:101B50000B70116801311160C18D01390A04C18512
:101B600000D070470168CA6822F02002CA60CA68C3
:101B700022F48072CA604A6922F001024A6120227E
:101B800080F83E20026B012A18BFFFF73FBE0022FB
:101B90000263CB6823F01003CB600B68DB0607D52C
:101BA00081B000920A68009249680091009901B0E2
:101BB000818DFFF7F1BB00BF026852686FF35F22AF
:101BC00021F8022B8162C7E743F60000C4F201004E
:101BD000016889060AD580B5406840F24831C0B234
:101BE000C2F2000100F01EFABDE8804040F2BC20C5
:101BF000C2F20000FFF7D4BB10B540F26804C2F295
:101C00000004216819B9FEF7EBFD0146206044F697
:101C10000000C4F200000268920603D54068C0B21A
:101C200000F000FA40F20030C2F20000BDE81040BF
:101C3000FFF7B6BB0129B8BF704710B544F60002E4
:101C4000C4F20002042901F0030C3BD20021BCF1D4
:101C5000000F33D013681B0609D413681B065CBF42
:101C600013685FEA036302D413681B06F2D5435C72
:101C7000BCF1010F536021D013681B0609D413680F
:101C80001B065CBF13685FEA036302D413681B067C
:101C9000F2D508444178BCF1020F51600ED01168B2
:101CA000090609D4116809065CBF11685FEA016181
:101CB00002D411680906F2D580785060BDE8104062
:101CC000704700BF4FF6FC73C7F6FF7301EA030EBF
:101CD000002104E0C35C043171455360B7D0136840
:101CE0001B0606D413681B065CBF13685FEA036318
:101CF00034D5435C536041F001031468240609D4D1
:101D0000146824065CBF14685FEA046402D4146893
:101D10002406F2D5C35C536041F002031468240624
:101D20000AD4146824065CBF14685FEA046403D410
:101D300014682406F2D500BFC35C536041F003036E
:101D400014682406C6D4146824065CBF14685FEACD
:101D50000464BFD414682406F2D5BBE713681B06DD
:101D6000BDD5C6E7FEE70000B0B540F2F801C2F20B
:101D700000010C6844B1054620682946FEF70DFABB
:101D800018B1E46B002CF7D100242046B0BD000050
:101D900010B582B040F2D0340190C2F200040020AD
:101DA000207040F2BC20C2F2000001A90122FFF71E
:101DB0003DFD00BF207830B9207820B9207810B9D7
:101DC00020780028F6D0002002B010BD90B0FEF7B9
:101DD0001FFF00240120CDE90B44CDE90944069002
:101DE0000A904FF4E0104FF4803102250F9006A8BE
:101DF000CDE90714CDE90D51FFF7B8F820B1EFF3A5
:101E0000108072B6FEE700BF0F20CDE901054FF448
:101E10008060CDE9040401A802210394FEF7A0FF2D
:101E200020B1EFF3108072B6FEE700BFFFF73CFD74
:101E3000FFF7BAFDFFF7D6FD40F24830C2F20000CE
:101E400000F0D4F8FEF796FCFEF7A8FC03A000F023
:101E500015FA00F00BF800BFFEE700BF48656C6C98
:101E60006F20576F726C64210D0000002DE9F04364
:101E7000B9B04FF4FA60FFF711FDFEF7A7FB33A0EE
:101E8000FEF7ACFC016A04468847636A42F2D5213A
:101E900042F2CA22C0F60001C0F60002204698476E
:101EA000B0B142F2D52642F2CA272AA5C0F60006F2
:101EB000C0F60007284600F0E1F94FF47A70FFF70A
:101EC000EDFC636A204631463A4698470028F1D136
:101ED00025A000F0D3F9A26A34A92046904728B182
:101EE00026A000F0CBF939B0BDE8F08327A034A9D3
:101EF00040F2D24200F0A6F8216B20468847E36A00
:101F000029A1204640F2D242984728B127A000F0EC
:101F1000B5F939B0BDE8F0832AA000F0AFF902AD01
:101F200001AE4FF000080FF2B00900BFA76B2046CA
:101F3000294632466423B8470028F7D1019829463C
:101F400005F80080484600F07DF8EFE765737038CB
:101F500032363600436F6E6E6563742057494649CA
:101F6000206572720D000000436F6E6E6563742011
:101F700057494649206F6B0D0000000047657449C2
:101F80006E666F206572720D00000000426F617214
:101F900064204950203D2025732C20706F727420DE
:101FA0003D2025640D0A0000756470004372656170
:101FB0007465205472616E73666572206572720D6D
:101FC00000000000437265617465205472616E7395
:101FD000666572206F6B0D00476574204E65744412
:101FE0006174613A2025730D0A0000000021C0F8D9
:101FF0008010C0F884107047D1F88420D1F8803068
:102000009A4204BF4FF0FF307047D1F884208A5CB9
:102010000270D1F88400013000F07F00C1F8840024
:1020200000207047D1F88020D1F88430013202F0CE
:102030007F029A4208BF7047D1F88030C854C1F877
:10204000802070470FB4054B10B503A9044A0298CD
:1020500000F02CF810BC5DF814FB0000911D000886
:10206000000000200FB4084B10B504A902AA039881
:1020700000F01CF8044602A9002000F0F3F8204606
:1020800010BC5DF814FB00006522000802E008C8DF
:10209000121F08C1002AFAD170477047002001E0E2
:1020A00001C1121F002AFBD1704700002DE9FF4F2C
:1020B0008BB09A460F460546002606E025280BD031
:1020C00052460D9990476D1C761C28780028F5D152
:1020D0000FB03046BDE8F08F0024A04601226049D1
:1020E00000E0044315F8013F203B02FA03F00842E8
:1020F000F7D128782E2817D115F8010F44F00404E1
:102100002A280ED06FF02F022878A0F1300109297B
:102110000AD808EB880102EB410100EB01086D1CB5
:10212000F2E757F8048B6D1C287869283ED006DC4E
:102130000028CDD063280BD0642804D136E0732862
:1021400010D075284BD052460D999047761C85E0EB
:1021500017F8040B8DF8000000208DF80100E94607
:10216000012003E057F8049B4FF0FF3061074FF068
:10217000000401D40AE0641C44450DDA8442FADB11
:1021800019F804100029F6D106E0641C8442FCDB37
:1021900019F804100029F8D1264404E019F8010BBD
:1021A00052460D999047641EF8D257E001CF4FF088
:1021B0000A0B002802DA40422D2102E0210504D555
:1021C0002B218DF82410012103E0E10705D0202107
:1021D000F7E70DF1200908910CE00021F9E701CFA4
:1021E0004FF00A0BF9E75946FDF7EEFF01F1300217
:1021F00009F8012D0028F6D1ADEB090000F1200B04
:10220000600701D44FF00108D84502DDA8EB0B00B0
:1022100000E000208046002406E009A85246005D48
:102220000D999047641C761C08988442F5DB04E005
:10223000302052460D999047761CB8F10001A8F164
:102240000108F5DC05E019F8010B52460D9990479D
:10225000761CBBF10001ABF1010BF4DC6D1C34E723
:10226000092801000A68531C0B60107070470000B9
:102270000149FFF78DBD00000000002010B50446A5
:1022800001E0FFF785FD14F8010B04490028F8D19F
:10229000BDE810400A20FFF77BBD000000000020D1
:1022A0000102000000000000000001020304060714
:1022B00008090000000001020304020304050607E8
:1022C00008090A0B0C0D0E0F101031303061736BC2
:1022D000746563680050726F6772616D6D657273CB
:1022E0000075617274330065737038323636004F92
:1022F0004B0D0A004552524F520D0A002074696D71
:10230000656F75740D000000282300080000002090
:10231000680000008C20000890230008680000205E
:10232000700700009C200008000000000100000071
:10233000100000000024F400E7220008302E302EA8
:10234000302E3000000000000000000000000000FF
:102350000000000000000000190700080106000846
:102360007D06000835060008ED050008590700083D
:102370004D07000800000000E1220008C91A00080B
:10238000DD1A0008011B0008F11A00080000000017
:0400000508000131BD
:00000001FF
