:020000040800F2
:10000000B0080020450100089D1300088511000874
:1000100099130008BD010008A514000800000000A5
:10002000000000000000000000000000A513000810
:10003000C101000800000000A1130008A913000876
:100040005F0100085F0100085F0100085F01000810
:100050005F0100085F0100085F0100085F01000800
:100060005F0100085F0100085F0100085F010008F0
:100070005F0100085F0100085F0100085F010008E0
:100080005F0100085F0100085F0100085F010008D0
:100090005F0100085F0100085F0100085F010008C0
:1000A0005F0100085F0100085F0100085F010008B0
:1000B0005F0100085F0100085F0100085F010008A0
:1000C0005F0100085F0100085F0100085F01000890
:1000D0005F010008691400085F0100089914000816
:1000E000C50100085F0100085F0100085F0100080A
:1000F0005F0100085F0100085F0100085F01000860
:100100005F0100085F0100085F0100085F0100084F
:100110005F0100085F0100085F0100085F0100083F
:100120005F0100085F0100085F0100085F0100082F
:10013000DFF80CD000F02AF800480047D914000876
:10014000B00800200648804706480047FEE7FEE763
:10015000FEE7FEE7FEE7FEE7FEE7FEE7FEE7FEE777
:10016000AD13000831010008D2B201E000F8012B04
:10017000491EFBD270470022F6E710B513460A4627
:1001800004461946FFF7F0FF204610BD1CB509488C
:100190000090094801900546009C06E0E06840F0A8
:1001A000010394E8070098471034AC42F6D3FFF7F8
:1001B000C3FF00006016000880160008FEE700007C
:1001C0007047000080B54FF4804000F0EBF84FF42A
:1001D0000040BDE8804000F0E5B8000080B5252073
:1001E0000021012200F068FA252000F053FA40F2C5
:1001F0001000C2F200000068C16841F06001C160F7
:1002000080BD0000EFF3108072B600BFFEE7000073
:10021000014690F82100022813D10868D1E90FC3E4
:10022000026822F00E020260026822F001020260FF
:10023000012000FA03F2CCF8042081F8210000200C
:1002400002E0042088630120002281F8202070470A
:1002500090F82110022927D1026840F2040C13689B
:10026000C4F2020C23F00E03136013680CF17C013E
:100270008A4223F0010111601AD940F20841C4F208
:1002800002018A424ED040F21C41C4F202018A426D
:1002900041D040F23041C4F202018A4246D14FF4CB
:1002A0008073CCF8003457E004218163012070474B
:1002B0004321C4F202018A420EDD6B21C4F2020125
:1002C0008A421BDC4421C4F202018A423BD05821FD
:1002D000C4F202018A4222E00821C4F202018A42E9
:1002E0002FD01C21C4F202018A4232D03021C4F244
:1002F00002018A4213D14FF480722BE06C21C4F2C8
:1003000002018A4222D08021C4F202018A4206D12F
:100310004FF080721EE01023CCF800341CE04FF444
:10032000803217E00123CCF8003415E00CF5886129
:100330004FF480338A4208BF4FF48053CCF8003426
:100340000AE0012206E04FF4805203E04FF48012ED
:1003500000E01022CCF80020416B4FF4807200299D
:10036000028404BF0020704780B58847002080BD0C
:1003700010B50146B0F5804F08D0B1F5004F18BF59
:1003800010BD40F20904C2F2000403E040F2080488
:10039000C2F2000441F60000C4F2010000F0FCF8D3
:1003A000207010BD40F21441C4F201010A680242FB
:1003B00014BF08607047FFF7DBBF00002DE9F04F66
:1003C00082B00E68002E00F0E380A0F1804241F67A
:1003D000004540F20043A2F58432C4F20105062430
:1003E000C4F201034FEAB227A84208BF05244FF028
:1003F000000E4FF001080F254FF0000A4FF0000BE0
:10040000052F38BF4FEAB224009408E00E680AF1C5
:10041000010A36FA0AF20EF1040E00F0B98008FA69
:100420000AFC16EA0C09F1D04E684FF6FF72C1F2D1
:100430001002964210DC122E50D8DFE806F0330A84
:1004400048454F4F4F4F4F4F4F4F4F4F4F4F4F41DB
:100450004C00D1F80CB041E04FF6FF72C1F221021E
:1004600096420FDC0022C1F2110296421AD00022FD
:10047000C1F21202964215D00022C1F22102964228
:1004800010D02BE00022C1F2220296420AD00022B4
:10049000C1F23102964205D00022C1F232029642E8
:1004A0001CD100BF8A6842B1012A14BFC0F814C031
:1004B000C0F810C04FF0080B10E04FF0040B0DE037
:1004C000CA6802F1040B09E04FF0000B06E0CA68AD
:1004D00002F1080B02E0CA6802F10C0B02467446F6
:1004E000B9F5807F24BF0432203C166805FA04F772
:1004F00026EA07070BFA04F637431760CA79D206D3
:100500007FF584AF41F21807C4F202073A684FF64C
:10051000084542F001023A603A68CFF6FF7502F0F2
:1005200001020192019A2AF003021A440F2457593A
:100530000EF00C06B440A743009C04FA06F63743BD
:1005400057514E680F25F2031A6854BF22EA090278
:1005500042EA09021A605A68B70354BF22EA090244
:1005600042EA09025A60F7029A6854BF22EA090275
:1005700042EA0902B70240F20C479A60C4F201074E
:100580003A6854BF22EA090242EA09023A603DE7AA
:1005900002B0BDE8F08F00008068084018BF01205D
:1005A00070470000002A08BF09040161704700007D
:1005B00040F2A840C2F200000068704740F20A0012
:1005C00040F2A841C2F20000C2F2000100780A68BD
:1005D000104408607047000080B542F20000C4F289
:1005E0000200016841F010010160032000F090F862
:1005F000002000F005F800F02BF8002080BD00007E
:10060000B0B540F20A02C2F2000240F204011278D0
:10061000C2F200014FF47A730968B3FBF2F20446A8
:10062000B1FBF2F1084600F021FB0F2C4FF0010561
:100630000CD858B94FF0FF3021460022002500F0B9
:100640003BF840F20C00C2F2000004602846B0BD46
:1006500082B041F21800C4F202000168022241F0A7
:1006600001010160016801F00101019101994168F6
:1006700041F080514160406800F080500090009847
:100680000420C4F20100016862F31A61016002B043
:1006900070470000002848BF704700F01F0101228A
:1006A00002FA01F11C2202EAD0004EF20012CEF250
:1006B000000281507047000010B54EF60C5CCEF27F
:1006C000000CDCF80030C3F3022E8EF00704042C7B
:1006D00028BF0424BEF103034FF0FF3E0EFA04F4DA
:1006E00038BF0023A14399400EFA03F39A43114304
:1006F00000F1604200F00F03090102F56442043B7F
:100700006344002848BF03F10C02117010BD0000C3
:100710004EF60C51CEF200010A684FF6FF031A4064
:1007200060F30A2242F0806040F0FD70086070477C
:10073000002804BF012070472DE9F04381B042F248
:100740000008C4F202080446D8F800000D4600F084
:10075000070088420CD2D8F8000020F00700284398
:10076000C8F80000D8F8000000F00700A8426BD1DC
:10077000206841F204098107C4F2020917D5410734
:1007800005D5D9F8001041F4E061C9F8001001075F
:1007900005D5D9F8001041F46051C9F80010D9F816
:1007A0000010A26821F0F0011143C9F80010C00741
:1007B00041D1D8F8000000F00700A8420CD9D8F8C1
:1007C000000020F007002843C8F80000D8F8000017
:1007D00000F00700A84237D12068410707D5D9F8B3
:1007E0000010E26821F4E0611143C9F8001000072D
:1007F00008D5D9F80000216920F4605040EAC10012
:10080000C9F80000D9F8002002F00C00082841F2D5
:100810000020C0F27A0049D141F24E63C2F3834115
:10082000C0F60003595CD20334D440F60010C0F285
:100830003D0048433AE0606859F8041C022807D09C
:10084000012824D1890305D4012001B0BDE8F0833B
:100850008901F9D5D9F8001021F003010843C9F83E
:100860000000FFF7A5FE064641F28837D9F80000E0
:10087000616800F00C00B0EB810F9AD0FFF798FE92
:10088000801BB842F2D9032001B0BDE8F08389078C
:10089000DAD5DFE7D9F8002041F23463C2F34042F1
:1008A000C0F600039A5C4843B0FBF2F0D9F80010A0
:1008B00041F23662C1F30311C0F60002515C40F20E
:1008C000040220FA01F140F20C00C2F200000068BC
:1008D000C2F200021160FFF793FE002001B0BDE8F4
:1008E000F083000040F2040041F20401C2F2000073
:1008F000C4F202010068096841F24662C1F30221B4
:10090000C0F60002515CC8407047000040F204008D
:1009100041F20401C2F20000C4F202010068096859
:1009200041F24662C1F3C221C0F60002515CC840E8
:1009300070470000002804BF012070472DE9F041F6
:1009400082B00446007841F20006C007C4F20206F5
:1009500047D0706800F00C00042808D1306880038C
:100960003FD56068E8BB012002B0BDE8F081706847
:1009700000F00C00082802D17068C003EED465684E
:1009800030682DB1B5F5A02F09D0B5F5803F0AD05C
:1009900020F480303060306820F4802005E040F49E
:1009A00080203060306840F480303060FFF700FE17
:1009B000002D054612D000BF3068800311D4FFF728
:1009C000F7FD401B6428F7D916E100BFFFF7F0FDE3
:1009D000401B64284FF0030000F2D8803068800389
:1009E000F4D42078800719D5706810F00C0F07D068
:1009F000706800F00C00082827D17068C00324D468
:100A00003068800703D52069012840F0A68030684F
:100A1000616920F0F80040EAC100306020780007EA
:100A20004ED5A06938B30020C4F242200121C0F89D
:100A30008014FFF7BDFD0546706A80072DD4FFF7CF
:100A4000B7FD401B0228F7D9D6E02069002840F204
:100A50000000C4F2422000F0A88001210160FFF7ED
:100A6000A7FD054630688007D1D4FFF7A1FD401BE4
:100A70000228F7D9C0E00020C4F242200021C0F8CB
:100A80008014FFF795FD0546706A800718D5FFF7BB
:100A90008FFD401B0228F7D9AEE040F20400C2F2FD
:100AA0000000006844F6D351C1F26201A0FB0101CD
:100AB000480A019000BF0198411E00280191F9D118
:100AC0002078400717D4E5698DB1706800F00C00FC
:100AD000082846D1012D40D07068216A00F4803288
:100AE0008A423AD1616A00F47010884235D1002000
:100AF00002B0BDE8F081F0695FEAC00808D4F0698F
:100B000040F08050F061F06900F080500090009853
:100B100047F20007C4F200073868C0050FD43868F0
:100B200040F480703860FFF743FD05463868C00523
:100B300005D4FFF73DFD401B6428F7D95CE0E5686C
:100B4000306A1DB1052D41D0012D43D020F00100A8
:100B50003062306A20F004003EE0012002B0BDE8BF
:100B6000F0810027C4F2422700203866FFF720FDFD
:100B7000022D05460ED100BF3068800153D5FFF726
:100B800017FD401B02284FF00300F5D902B0BDE865
:100B9000F08100BF30688001A9D5FFF709FD401B37
:100BA00002284FF00300F5D9F0E700210160FFF7BC
:100BB000FFFC0546306880077FF530AFFFF7F8FC93
:100BC000401B02284FF00300F4D9DFE740F0040097
:100BD0003062306A40F001003062FFF7E9FC002D1E
:100BE000054641F2883712D0306A800712D4FFF7E9
:100BF000DFFC401BB842F7D9032002B0BDE8F0810A
:100C0000FFF7D6FC401BB8424FF00300BED8306A55
:100C10008007F5D4B8F1000F3FF555AFF06920F02B
:100C20008050F0614FE7206AB0F5803F05D17168D0
:100C3000A26821F40031114371607168626A21F485
:100C4000741111430843706001203866FFF7B0FC4F
:100C5000044600BF306880013FF549AFFFF7A8FCAC
:100C6000001B02284FF00300F4D98FE7411E00203B
:100C7000B0EB116F1CBF012070474EF21002CEF294
:100C8000000251604EF62351CEF20001F0230B70AA
:100C900007219060116070477047000070470000A6
:100CA000B0B582B002681168D468536901F02F05AD
:100CB000202D04F0200505D125B102B0BDE8B040DB
:100CC00000F07CBB5FEA017C1EBF03F0010E04F460
:100CD000907313EB0E0340D1036BCD0618D5012B97
:100CE00016D114F0100313D0002101911168019165
:100CF0005168019101995169490647D4818DC38D8D
:100D0000C58D002D18BF994240F0D68002B0B0BD0D
:100D10000B062AD514F0800327D090F83D10212926
:100D2000F4D18168B1F5805F03D10169002900F039
:100D3000E080016A4B1C036209785160C18C013963
:100D40000B04C184E2D1D06820F08000D060D0686C
:100D500040F04000D06002B0B0BDCA0718BF14F424
:100D600080723FD14A0743D449E04906CED514F0FA
:100D70004001CBD0D16821F04001D160202180F822
:100D80003D1002B0BDE8B04000F0ECB9816B0B68DB
:100D90005B689DB2002DB9D0848DA542B6D2C385C3
:100DA0008B69202B19D0D368044623F48073D36059
:100DB000536923F001035361536923F040035361E6
:100DC000202380F83E3000230363D368084623F0D5
:100DD0001003D360FFF71CFA2046818DC28D891A5B
:100DE00089B27CE0026C42F0010202644A0706D537
:100DF000BEF1000F03D0026C42F0020202648A07C7
:100E000006D5BEF1000F03D0026C42F0040202646A
:100E1000BCF1000F06D55EEA050203D0026C42F079
:100E200008020264026C002A3FF470AF890604D500
:100E30001DB1044600F0C2FA204601684A69036CFD
:100E400002F0400203F00803D2182ED0CA6822F440
:100E50009072CA604A6922F001024A61026B012A5B
:100E600003D1CA6822F01002CA60202280F83E2016
:100E7000002202634A69520636D54A6922F04002CE
:100E80004A61816B81B341F2B132C0F6000204467F
:100E900008464A63FFF7DCF900283FF437AFA06B40
:100EA000416B02B0BDE8B04008470446FFF7F6FECC
:100EB0000020206402B0B0BDD568C91A25F4907531
:100EC000D560556989B225F001055561202580F866
:100ED0003E5000250563D56825F01003D36002B0AD
:100EE000BDE8B040FFF7D8BE02B0BDE8B040FFF7A4
:100EF000D5BE016A31F8023B6FF35F235360016294
:100F00001CE70000002804BF0120704710B504460C
:100F100090F83D0028B9002084F83C00204600F0FD
:100F200061F8242084F83D002068D4E90212C368E7
:100F300023F40053C360036923F440531A4302614E
:100F4000D4E904231143C268194341F20C639A4364
:100F50001143C1604169A26921F44071114343F614
:100F60000002C4F201029042416102D0FFF7BAFCD4
:100F700001E0FFF7CBFCD4E9002319214843990095
:100F8000B0FBF1F048F21F5CC5F2EB1CA0FB0C318A
:100F90004FF69C734909C0F6FF7301FB030032232F
:100FA00003EB0010A0FB0C03F02000EA531000EB51
:100FB0000110C3F34311084490601069202120F40C
:100FC00090401061506920F02A005061D06840F4D0
:100FD0000050D0600020206484F83D1084F83E105A
:100FE00010BD000070B586B0006844F60001C4F280
:100FF0000001002688420596CDE90366029638D0A6
:1010000043F60001C4F20101884274D141F2180094
:10101000C4F20200016840F6000441F4804101601E
:101020000168C4F2010401F4804101910199016851
:1010300002AD41F0040101600068294600F004009F
:10104000019001984FF40070029002200390032059
:1010500005902046FFF7B2F94FF48060029000201F
:1010600003900120049020462946FFF7A7F906B017
:1010700070BD41F21800C4F20200416802AD41F4B3
:1010800080214160416801F480210191019901684A
:1010900041F0200101600068294600F02000019025
:1010A00001984FF480700290022003900320059075
:1010B00040F60000C4F2010000F540642046FFF74E
:1010C0007DF94FF40070CDE90206204629460496CA
:1010D000FFF774F90420C4F201000168002241F016
:1010E000E06141F03001016027200021FFF7E4FAC0
:1010F0002720FFF7CFFA06B070BD0000006843F666
:101100000001C4F20101884218BF704740F2980004
:10111000C2F20000012101707047000090F83D30DC
:10112000202B0BD100294FF0010318BF002A01D159
:101130001846704790F83C30012B02D10223184624
:1011400070470162002321218284C284036480F8F5
:101150003D10016880F83C30C86840F08000C860ED
:1011600018467047006843F60001C4F20101884246
:1011700018BF704740F2A440C2F200000121017084
:1011800070470000FEE7000040F20800C2F20000D5
:101190000078704740F20900C2F200000078704702
:1011A000B0B586B00020CDE90400CDE9020041F2DF
:1011B0001800C4F20200016841F6000441F0400149
:1011C00001600168C4F2010401F04001019101993C
:1011D000016802AD41F0400101600068294600F05D
:1011E0004000019001980020C1F2310003900120DD
:1011F00004904FF4804002902046FFF7DFF84FF450
:101200000040029020462946FFF7D8F82820002108
:101210000222FFF751FA2820FFF73CFA06B0B0BDD2
:101220002DE9F04F85B04FF0000841F21800CDE9EC
:101230000388CDE90188C4F20200016841F6000A82
:1012400041F0400101600168C4F2010A01F040016F
:10125000009100990168012241F0100101600168CC
:10126000402701F01001009100990168012441F02C
:1012700080010160016801F080010091009901681E
:1012800041F020010160016801F020010091009906
:10129000016841F0040101600068402100F0040091
:1012A000009000985046FFF77DF90AF580663046B9
:1012B0004FF4786101224FF47869FFF773F9AAF5CA
:1012C0000065284640210122FFF76CF9CDE9017441
:1012D00001AF4FF0030B504639460394CDF810B0E0
:1012E000FFF76CF830463946CDE90194CDE9034B60
:1012F000FFF764F84FF44040CDE901085046394605
:101300000394FFF75BF84020CDE9010428463946F5
:10131000CDE9034BFFF752F805B0BDE8F08F0000B0
:1013200080B540F2100043F60001C2F20000C4F2A2
:10133000010100234FF00C0C4FF4E13280E80E0065
:10134000C0E90333C0E905C3C361FFF7DBFD002833
:1013500008BF80BDBDE88040FEF754BF80B540F2B5
:10136000540044F60001C2F20000C4F20001002360
:101370004FF00C0C4FF4E13280E80E00C0E903336B
:10138000C0E905C3C361FFF7BDFD002808BF80BDEC
:10139000BDE88040FEF736BFFEE70000FEE7000034
:1013A0007047000070470000FFF708B97047000061
:1013B000406A0021C185C184FFF770BC90F83E10DF
:1013C000222918BF70478268B2F5805F02D1016997
:1013D000002940D0816AB2F5805F07D00AB902695E
:1013E00022B10268526802F07F0201E0026852688E
:1013F0000A70816A01318162C18D01390A04C18597
:1014000000D070470168CA6822F02002CA60CA682A
:1014100022F48072CA604A6922F001024A612022E5
:1014200080F83E20026B012A18BFFFF767BE00223A
:101430000263CB6823F01003CB600B68DB0607D593
:1014400081B000920A68009249680091009901B049
:10145000818DFFF721BC0168826A49686FF35F21C3
:1014600022F8021B8262C7E743F60000C4F20100C3
:10147000016889060AD580B5406840F29C01C0B277
:10148000C2F2000100F0A4F8BDE8804040F2100074
:10149000C2F20000FFF704BC40F25400C2F20000A8
:1014A000FFF7FEBBFEE7000010B582B040F2A44497
:1014B0000190C2F200040020207040F21000C2F23D
:1014C000000001A90122FFF729FE00BF20780028B3
:1014D000FCD002B010BD000090B0FFF77DF806AC64
:1014E00020462821FEF747FE012006900A904FF47F
:1014F000E01000254FF4803102260F90204605951C
:10150000CDE90355CDE90155CDE90715CDE90D61CB
:10151000FFF710FA18B1EFF3108072B6FEE70F2054
:10152000CDE901064FF48060CDE9040501A8022150
:101530000395FFF7FDF820B1EFF3108072B600BFFE
:10154000FEE7FFF76DFEFFF7EBFEFFF707FFFFF784
:1015500027FE40F29C00C2F2000000F033F8FEF7D4
:101560003DFE0AA00DA412A501E000BF284600F030
:101570004FF803E0FFF70EFE0028F7D0FFF704FE58
:101580000028F7D1204600F043F8F3E748656C6C7B
:101590006F20576F726C64210D0000004B6579203D
:1015A000312069732070726573736564210D0000CA
:1015B0004B6579203220697320707265737365649E
:1015C000210D00000021C0F80014C0F80414704779
:1015D000D1F80024D1F8043401326FF39F229A42EB
:1015E00008BF7047D1F80034C854C1F800247047D0
:1015F00002E008C8121F08C1002AFAD170477047DC
:10160000002001E001C1121F002AFBD17047000039
:1016100010B5044601E0FFF747FF14F8010B044939
:101620000028F8D1BDE810400A20FFF73DBF0000B8
:101630000000002001020000000000000000010284
:101640000304060708090000000001020304020366
:101650000405060708090A0B0C0D0E0F10100000F8
:10166000801600080000002010000000F01500089F
:101670009016000810000020A008000000160008C6
:10168000000000000024F40001010100100000002F
:0400000508000131BD
:00000001FF
