:020000040800F2
:10000000B80E0020450100085D2A0008C925000837
:10001000592A0008E907000805350008000000001B
:100020000000000000000000000000000D3000088B
:100030001D080008000000000D2F00080531000811
:100040005F0100085F0100085F0100085F01000810
:100050005F0100085F0100085F0100085F01000800
:100060005F0100085F0100085F0100085F010008F0
:100070005F0100085F0100085F0100085F010008E0
:100080005F0100085F0100085F0100085F010008D0
:100090005F0100085F0100085F0100085F010008C0
:1000A0005F0100085F0100085F0100085F010008B0
:1000B0005F0100085F0100085F0100085F010008A0
:1000C0005F0100085F0100085F0100085F01000890
:1000D0005F010008A93400085F010008F53400083A
:1000E000E50800085F0100085F0100085F010008E3
:1000F0005F0100085F0100085F0100085F01000860
:100100005F0100085F0100085F0100085F0100084F
:100110005F0100085F0100085F0100085F0100083F
:100120005F0100085F0100085F0100085F0100082F
:10013000DFF80CD000F038FA004800478D36000890
:10014000B80E00200648804706480047FEE7FEE755
:10015000FEE7FEE7FEE7FEE7FEE7FEE7FEE7FEE777
:100160007931000831010008D2B201E000F8012B1A
:10017000491EFBD270470022F6E710B513460A4627
:1001800004461946FFF7F0FF204610BD10B50022C7
:1001900000E0521C835C8C5CA34201D1002BF8D19F
:1001A000D8B2E1B2401A10BD30B50B46014600206E
:1001B0002022012409E021FA02F59D4205D303FA29
:1001C00002F5491B04FA02F52844151EA2F10102AA
:1001D000F1DC30BD2DE9F05F0546002092469B46DC
:1001E00088460646814640241BE02846414647464D
:1001F000224600F000FA53465A46C01A914110D3E5
:1002000011461846224600F0E7F92D1A67EB01085F
:100210004F4622460120002100F0DEF917EB0009CD
:100220004E41201EA4F10104DFDC484631462A4637
:100230004346BDE8F09F2DE9FE4F804681EA03006A
:10024000C00F0C46009021F0004123F00045B8EBB0
:100250000200A94105D24046214690461C460B4665
:10026000024623F00040104347D0270DC7F30A0091
:10027000C3F30A510290401A019040286BDAC3F38D
:10028000130040F4801B0098924620B10023D2EB6B
:10029000030A63EB0B0B01985946C0F1400250462C
:1002A00000F09AF906460D4650465946019A00F06C
:1002B000B2F910EB08006141002487EA115284EA88
:1002C000E7731A4340D0009A62B3019A012A4FEAB9
:1002D000075215DC001B61EB02014FF0004202EAFD
:1002E0000752CDE90042001C41F5801132462B46F1
:1002F00000F0B2F903B0BDE8F08F40462146F9E7BF
:10030000001B61EB0201001C41F5801300185B41EA
:100310002018A2F5001747EB030140EAD570B61983
:100320006D4111E06D084FEA360645EAC0754FEAA7
:100330000752001B61EB0201001C41F580114908C6
:100340004FEA30000019514132462B4603B0BDE858
:10035000F04F00F072B90098012240000023D0EB6A
:10036000020263EBE073009821464FEAE074B8EBB9
:10037000000061EB0401E9E783F000435BE781F0F3
:10038000004158E72DE9FE4F81EA030404F00044E0
:1003900021F0004100944FF0000B23F0004350EA9D
:1003A00001045ED052EA03045BD0C3F30A54C1F3E4
:1003B0000A552C44A4F2F3340194A0FB0254C1F377
:1003C000130141F48011C3F3130343F4801301FBC1
:1003D000024400FB034E840A970A44EA815447EA28
:1003E0008357A4FB076802958D0A05FB07854FEA32
:1003F000932C04FB0C542705029D4FEA065847EA4C
:100400001637B5EB08056EEB070C870E920E47EA20
:10041000811742EA8312A7FB0201B6EB0B0164EBE2
:1004200000042B0D43EA0C335E1844EB1C50DA46F3
:100430005146E7FB0201C5F313044FEA0B3343EACD
:1004400014534FEA0432019C43EA0603A4F10C045E
:100450000294009CCDE900B400F0FEF803B0BDE8C2
:10046000F08F00200146F9E72DE9F04D81EA030401
:1004700004F0004B21F0004514464FF0000A23F031
:10048000004150EA050220D054EA01021DD0C5F314
:100490000A570246C5F31303C1F31300C1F30A560A
:1004A00040F4801543F48013A7EB0608101BD646D2
:1004B00008F2FD3873EB050002D308F1010801E0F2
:1004C00092185B41B8F1000F03DA00200146BDE845
:1004D000F08D00204FF48011064684460EE0171B75
:1004E00073EB050705D3121B63EB050306434CEAC8
:1004F000010C49084FEA300092185B4150EA0107AD
:10050000EDD152EA030012D082EA040083EA050129
:10051000084305D0101BAB4106D20122002306E0A0
:1005200000224FF0004302E06FF0010253101AEB7B
:1005300006004CEB085110EB0A0041EB0B01BDE843
:10054000F04D00F07AB8C1F30A52C1F3130140F242
:10055000FF3341F480119A4202DA002001467047CD
:1005600040F233439A42A2F2334202DC524200F09C
:1005700042B800F031B8000030B5041E71F100043B
:1005800004DB4FF00044404264EB0101141E73F1A0
:10059000000405DB1C464FF00043524263EB0403AA
:1005A000994208BF904230BD1CB5094800900948E7
:1005B00001900546009C06E0E06840F0010394E8E5
:1005C000070098471034AC42F6D3FFF7B5FD0000A2
:1005D000E848000808490008202A04DB203A00FA0D
:1005E00002F1002070479140C2F1200320FA03F38A
:1005F000194390407047202A04DB203A21FA02F088
:100600000021704721FA02F3D040C2F1200291404C
:10061000084319467047202A06DBCB17203A41FAD7
:1006200002F043EAE07306E041FA02F3D040C2F17F
:100630002002914008431946704710B5141E73F10B
:10064000000408DA401C41F1000192185B411A4392
:1006500001D120F0010010BD2DE9F04D92469B46DE
:1006600011B1B1FA81F202E0B0FA80F22032904684
:10067000FFF7B2FF04460F4640EA0A0041EA0B01C9
:1006800053465A46084313D0114653EA010019D085
:10069000C8F140025046FFF7AEFF05460E465046F1
:1006A00059464246FFF798FF084305D0012004E071
:1006B00020463946BDE8F08D0020054346EAE07645
:1006C0002C4337430A986305E40AA0EB0800002294
:1006D000FD0A44EA47540A3002D500200146E9E702
:1006E000010510196941DDE9084500196941BDE8B6
:1006F000F04DA2E786B004900391082002901020EC
:100700000190049944F29E00C0F6000000EB011035
:1007100000900398A0B3FFE7039908690860039964
:100720004869019A801A0130486003990869029A61
:100730001044886103994869C861029803998860E8
:1007400001980399C8600398006A20B9FFE70098F0
:100750000399086211E00398016ADDF800C0DCF833
:100760000000DCF80420DCF80830DCF80CC0C1F82C
:100770000CC08B604A600860FFE70020059003E032
:100780004FF0FF300590FFE7059806B07047000076
:1007900082B001900091019820B1FFE701990820F3
:1007A0000860FFE7009820B1FFE70099102008607B
:1007B000FFE702B07047000080B540F22000C2F2AF
:1007C000000000F02DF880BD80B5FFF7F5FF80BD7B
:1007D00080B540F20800C2F2000000F0ABF880BD26
:1007E00080B5FFF7F5FF80BDFFE7FEE780B500F0BD
:1007F000FBFD80BD80B582B001900198406802F099
:10080000BDF902B080BD000080B582B0019001F05A
:10081000EBFE02F0D7F9002002B080BD7047000067
:1008200081B0009040F25441C2F200010868009A81
:1008300050620098086001B07047000080B588B031
:1008400007900691069840680490FFE70499069A7D
:100850005068D268024400209142029009DAFFE712
:1008600004990798C26800209142B8BF0120029005
:10087000FFE70298C00790B3FFE70698006805906D
:10088000FFE70599069A1068926802440020914299
:10089000019009DAFFE705990798826800209142E4
:1008A000B8BF01200190FFE70198C00790B1FFE7B2
:1008B00006980599049A00F075F803900798D0F807
:1008C00020C00599049A039BE047FFE70598013093
:1008D0000590D6E7FFE7049801300490B6E708B02A
:1008E00080BD000080B54FF4804000F085FB4FF4E0
:1008F000004000F081FB80BD80B582B025200190D2
:100900000021012200F00EFE019800F001FE40F2ED
:100910001C60C2F200000168C86840F06000C86056
:1009200002B080BD81B0EFF3108072B60090FFE797
:10093000FEE7000081B0009040F25841C2F2000191
:100940000868009A50610098086001B07047000084
:1009500082B0019000910198007800990860012010
:1009600002B0704780B582B00190019802F0CCFDD2
:1009700002B080BD80B582B00190009140F250403D
:10098000C2F200000068026901980099904702B025
:1009900080BD000080B582B00190019802F0D6FDC4
:1009A00002B080BD86B00590049103920598006A5C
:1009B0000090049805990968401A029003980599D7
:1009C0004968401A01900198072805DCFFE7029961
:1009D00000980844009005E0029800990844083007
:1009E0000090FFE70198092804DBFFE70198083829
:1009F0000190FFE700980078019A0121914008409A
:100A000006B0704783B0019000208DF80300019874
:100A100090F8210002280DD0FFE701990420886397
:100A2000FFE70199002081F82000FFE701208DF801
:100A30000B0021E001980168086820F00E000860B2
:100A400001980168086820F0010008600198C16BF6
:100A5000026C012090404860FFE70199012081F875
:100A60002100FFE70199002081F82000FFE79DF8B1
:100A700003008DF80B00FFE79DF80B0003B07047F3
:100A800080B596B0159000208DF85300159890F819
:100A90002100022807D0FFE7159904208863012070
:100AA0008DF8530074E115980168086820F00E0075
:100AB000086015980168086820F001000860159822
:100AC00000688121C4F202018842C0F0A880FFE7DB
:100AD000159800680821C4F20201884203D1FFE79B
:100AE0000120139094E0159800681C21C4F20201C3
:100AF000884203D1FFE71020129086E01598006825
:100B00003021C4F20201884204D1FFE74FF4807023
:100B1000119077E0159800684421C4F202018842E0
:100B200004D1FFE74FF48050109068E015980068FA
:100B30005821C4F20201884204D1FFE74FF480300B
:100B40000F9059E0159800686C21C4F202018842A8
:100B500004D1FFE74FF480100E904AE0159800682A
:100B60008021C4F20201884204D1FFE74FF0807077
:100B70000D903BE01598006840F20841C4F2020174
:100B8000884203D1FFE701200C902CE01598006803
:100B900040F21C41C4F20201884203D1FFE7102059
:100BA0000B901DE01598006840F23041C4F202013C
:100BB000884204D1FFE74FF480700A900DE0159849
:100BC000016840F24442C4F202024FF48030914284
:100BD00008BF4FF480500A90FFE70A980B90FFE798
:100BE0000B980C90FFE70C980D90FFE70D980E9076
:100BF000FFE70E980F90FFE70F981090FFE710980F
:100C00001190FFE711981290FFE712981390FFE7F9
:100C1000139840F20441C4F202010860A5E015985F
:100C200000680821C4F20201884203D1FFE70120D5
:100C3000099094E0159800681C21C4F202018842D2
:100C400003D1FFE71020089086E015980068302156
:100C5000C4F20201884204D1FFE74FF4807007908C
:100C600077E0159800684421C4F20201884204D15B
:100C7000FFE74FF48050069068E01598006858210F
:100C8000C4F20201884204D1FFE74FF4803005909E
:100C900059E0159800686C21C4F20201884204D121
:100CA000FFE74FF4801004904AE015980068802117
:100CB000C4F20201884204D1FFE74FF08070039034
:100CC0003BE01598006840F20841C4F202018842F6
:100CD00003D1FFE7012002902CE01598006840F254
:100CE0001C41C4F20201884203D1FFE710200190A9
:100CF0001DE01598006840F23041C4F202018842BC
:100D000004D1FFE74FF4807000900DE01598016862
:100D100040F24442C4F202024FF48030914208BFD4
:100D20004FF480500090FFE700980190FFE7019892
:100D30000290FFE702980390FFE703980490FFE713
:100D400004980590FFE705980690FFE7069807903E
:100D5000FFE707980890FFE708980990FFE70998D0
:100D60000421C4F202010860FFE71599012081F80F
:100D70002100FFE71599002081F82000FFE7159872
:100D8000406B20B1FFE71598416B8847FFE7FFE70D
:100D90009DF8530016B080BD8FB00E900D910020CD
:100DA0000C90FFE70D980C99C840002800F0DD80FA
:100DB000FFE70D980C9A0121914008400B900B9889
:100DC000002800F0CE80FFE70C9820F003000821F7
:100DD000C4F2010140580A900C9800F00300810011
:100DE0000F2000FA01F10A9808400A900A9807902B
:100DF0000E9840F60001C4F20101884203D1FFE7DA
:100E00000020069042E00E9840F60041C4F2010135
:100E1000884203D1FFE70120059034E00E9841F2AB
:100E20000001C4F20101884203D1FFE702200490CF
:100E300026E00E9841F20041C4F20101884203D13C
:100E4000FFE70320039018E00E9841F60001C4F27A
:100E50000101884203D1FFE7042002900AE00E99C5
:100E600041F60042C4F201020620914208BF05206B
:100E70000290FFE702980390FFE703980490FFE7D2
:100E800004980590FFE705980690FFE707980699F4
:100E90000C9A02F0030292009140884232D1FFE79F
:100EA0000C9800F0030081000F2088400A900A9BF4
:100EB0000C9820F003010822C4F2010288589843DC
:100EC00088500B9A40F20041C4F201010868904337
:100ED00008600B9A40F20441C4F201010868904393
:100EE00008600B9A40F20841C4F20101086890437F
:100EF00008600B9A40F20C41C4F20101086890436B
:100F00000860FFE70B98FF2803D8FFE70E980190D1
:100F100003E00E9804300190FFE7019809900B98C8
:100F2000FF2804D8FFE70C988000009006E00C9999
:100F30006FF01F0000EB81000090FFE70098089021
:100F400009980068089A0F21914088430421914034
:100F50000843099908600B9A0E99C8689043C860C5
:100F6000FFE70C9801300C901CE70FB070470000B1
:100F700080B58CB0ADF82E00BDF82E00B0F5804FD6
:100F800018D1FFE701F06EFC009000208DF80400FE
:100F90000120049041F60000C4F201004FF48041AA
:100FA00000F0F2F9B0FA80F040090590684601F0CF
:100FB000AFFF1EE0BDF82E00B0F5004F18D1FFE7DF
:100FC00001F050FC009000208DF8040002200490F5
:100FD00041F60000C4F201004FF4004100F0D4F9E2
:100FE000B0FA80F040090590684601F091FFFFE7F4
:100FF000FFE70CB080BD000080B582B0ADF8060000
:1010000040F21440C4F201000068BDF80610084226
:101010000CD0FFE7BDF8060040F21441C4F2010114
:101020000860BDF80600FFF7A3FFFFE702B080BD30
:1010300092B01190109100200F900B90FFE7109844
:1010400000680F99C840002800F09B81FFE70F99C6
:10105000012088400E90109800680E9908400D906D
:101060000D980E99884240F08881FFE710984068FB
:101070000790002851D0FFE7079801283AD0FFE7F2
:10108000079802283FD0FFE7079803285FD0FFE7C3
:101090000798112832D0FFE70798122838D0FFE7C9
:1010A00007980021C1F21101884236D0FFE7079866
:1010B0000021C1F2120188422FD0FFE707980021DA
:1010C000C1F22101884228D0FFE707980021C1F230
:1010D0002201884221D0FFE707980021C1F23101A7
:1010E00088421AD0FFE707980021C1F232018842F6
:1010F00013D02FE01098C0680B902CE01098C068B7
:1011000004300B9027E01098C06808300B9022E064
:101110001098C0680C300B901DE01098806818B9CA
:10112000FFE704200B9011E010988068012806D199
:10113000FFE708200B900E981199086105E0082040
:101140000B900E9811994861FFE7FFE703E000203C
:101150000B9000E0FFE70D98FF2803D8FFE71198F8
:10116000069003E0119804300690FFE706980A9075
:101170000D98FF2804D8FFE70F988000059006E03F
:101180000F996FF01F0000EB81000590FFE70598B5
:1011900009900A980068099A0F21914088430B9999
:1011A000914008430A9908601098C079C006002849
:1011B00040F1E280FFE7FFE741F21800C4F20200CD
:1011C000016841F001010160006800F00100089031
:1011D0000898FFE70F9820F003000821C4F20101EE
:1011E00040580C900F9800F0030081000F2000FA87
:1011F00001F10C9888430C90119840F60001C4F25C
:101200000101884203D1FFE70020049042E01198D9
:1012100040F60041C4F20101884203D1FFE70120FA
:10122000039034E0119841F20001C4F201018842B8
:1012300003D1FFE70220029026E0119841F200411D
:10124000C4F20101884203D1FFE70320019018E0B6
:10125000119841F60001C4F20101884203D1FFE771
:10126000042000900AE0119941F60042C4F2010204
:101270000620914208BF05200090FFE700980190EA
:10128000FFE701980290FFE702980390FFE70398B9
:101290000490FFE704980F9901F00301890000FA18
:1012A00001F10C9808430C900C980F9921F0030160
:1012B0000822C4F20102885010988079C00748B112
:1012C000FFE70D9A40F20041C4F2010108681043A3
:1012D000086008E00D9A40F20041C4F2010108687C
:1012E00090430860FFE7109880798007002809D5AF
:1012F000FFE70D9A40F20441C4F20101086810436F
:10130000086008E00D9A40F20441C4F20101086847
:1013100090430860FFE710988079C006002809D53F
:10132000FFE70D9A40F20841C4F20101086810433A
:10133000086008E00D9A40F20841C4F20101086813
:1013400090430860FFE7109880798006002809D54F
:10135000FFE70D9A40F20C41C4F201010868104306
:10136000086008E00D9A40F20C41C4F201010868DF
:1013700090430860FFE7FFE7FFE70F9801300F9009
:101380005DE612B07047000082B00190ADF8021027
:1013900001988068BDF80210084204D0FFE70120E0
:1013A0008DF8010003E000208DF80100FFE79DF8B3
:1013B000010002B07047000082B00190ADF8021049
:1013C0008DF801209DF8010028B1FFE7BDF802006B
:1013D0000199086105E0BDF8020000040199086167
:1013E000FFE702B07047000040F6B420C2F20000F0
:1013F0000068704740F24900C2F20000027840F6EF
:10140000B421C2F20001086810440860704700006F
:1014100080B582B042F20001C4F20201086840F0D7
:1014200010000860032000F097F80020019000F001
:1014300005F800F03BF8019802B080BD80B582B09D
:10144000009040F20400C2F20000006840F249013E
:10145000C2F200010A784FF47A71B1FBF2F1B0FBED
:10146000F1F000F087FD20B1FFE701208DF80700C3
:1014700018E000980F280DD8FFE700994FF0FF30D3
:10148000002200F04FF8009840F24C01C2F2000137
:10149000086003E001208DF8070003E000208DF8CC
:1014A0000700FFE79DF8070002B080BD83B0FFE7AB
:1014B00041F21800C4F20200016841F0010101602C
:1014C000006800F0010002900298FFE7FFE741F298
:1014D0001C00C4F20200016841F080510160006804
:1014E00000F0805001900198FFE7FFE70421C4F26B
:1014F000010108680090009820F0E06000900098DA
:1015000040F00070009000980860FFE703B070475B
:1015100080B582B08DF807009DF9070002F038F819
:1015200002B080BD80B586B08DF81700049103929B
:101530000020029002F044F802909DF917000190FB
:1015400002980499039A01F08BFA0146019802F07F
:101550003FF806B080BD000080B582B001900198D0
:1015600002F058F802B080BD80B584B002900191BD
:10157000029820B9FFE701208DF80F001BE10198C8
:1015800042F20001C4F20201096801F00701884239
:1015900016D9FFE742F20000C4F20200016821F010
:1015A0000701019A11430160006800F007000199EA
:1015B000884204D0FFE701208DF80F00FBE0FFE731
:1015C00002980078800700282AD5FFE70298007863
:1015D0004007002809D5FFE741F20401C4F20201E7
:1015E000086840F4E0600860FFE7029800780007B0
:1015F000002809D5FFE741F20401C4F2020108689E
:1016000040F460500860FFE741F20401C4F20201B7
:10161000086820F0F000029A926810430860FFE723
:1016200002980078C007002860D0FFE70298406861
:1016300001280ED1FFE741F20000C4F20200006869
:101640008003002804D4FFE701208DF80F00B2E0EA
:1016500021E00298406802280ED1FFE741F2000025
:10166000C4F2020000688001002804D4FFE70120D2
:101670008DF80F009FE00DE041F20000C4F202007F
:1016800000688007002804D4FFE701208DF80F00D0
:1016900091E0FFE7FFE741F20401C4F202010868AC
:1016A00020F00300029A526810430860FFF79CFE86
:1016B0000090FFE741F20400C4F20200006800F06D
:1016C0000C0002994968B0EB810F0ED0FFE7FFF7DD
:1016D0008BFE0099401A41F28931884204D3FFE71A
:1016E00003208DF80F0066E0E4E7FFE7019842F27F
:1016F0000001C4F20201096801F00701884216D214
:10170000FFE742F20000C4F20200016821F0070185
:10171000019A11430160006800F0070001998842B6
:1017200004D0FFE701208DF80F0044E0FFE70298A6
:101730000078400700280CD5FFE741F20401C4F20D
:101740000201086820F4E060029AD2681043086041
:10175000FFE702980078000700280DD5FFE741F267
:101760000401C4F20201086820F46050029A126970
:1017700040EAC2000860FFE700F04CF841F20401C3
:10178000C4F202010968C9B20A0944F28601C0F62E
:101790000001895CC84040F20401C2F20001086007
:1017A00040F24C00C2F200000068FFF747FE002044
:1017B0008DF80F00FFE79DF80F0004B080BD00001A
:1017C00040F20400C2F200000068704780B5FFF7E5
:1017D000F7FF41F20401C4F202010968C1F30222D9
:1017E00044F29601C0F60001895CC84080BD00004B
:1017F00080B5FFF7E5FF41F20401C4F20201096878
:10180000C1F3C22244F29601C0F60001895CC840CF
:1018100080BD00008BB040F60E70C1F210000A903F
:1018200040F60A30C0F60C50099040F20670C0F63F
:101830000810089040F20230C0F20450079040F2C5
:101840000120ADF81A00002005900490039002904A
:10185000019041F20400C4F202000068059005986E
:1018600000F00C0001460091E0B3FFE70098042867
:1018700004D0FFE70098082806D034E041F20020A9
:10188000C0F27A00019034E00598C0F3834107A8C4
:10189000405C02909DF81600C007C0B1FFE741F21E
:1018A0000400C4F20200006800F400310DF11A00D7
:1018B00040EA514000780490029841F20021C0F2C1
:1018C0007A0148430499B0FBF1F0039007E00298D5
:1018D00040F60011C0F23D0148430390FFE7039832
:1018E000019006E0FFE741F20020C0F27A0001908B
:1018F000FFE701980BB0704780B586B0049004985C
:1019000020B9FFE701208DF817002EE30498007836
:10191000C007002800F0AE80FFE741F20400C4F2E7
:101920000200006800F00C00042813D0FFE741F229
:101930000400C4F20200006800F00C0008281BD16B
:10194000FFE741F20400C4F202000068C00300286F
:1019500012D5FFE741F20000C4F2020000688003E4
:10196000002808D5FFE70498406820B9FFE7012068
:101970008DF81700F9E27CE0FFE704984068B0F5C5
:10198000803F09D1FFE741F20001C4F2020108687B
:1019900040F48030086032E00498406868B9FFE79E
:1019A00041F20001C4F20201086820F480300860AE
:1019B000086820F48020086020E004984068B0F5B2
:1019C000A02F0DD1FFE741F20001C4F20201086827
:1019D00040F480200860086840F4803008600CE023
:1019E00041F20001C4F20201086820F4803008606E
:1019F000086820F480200860FFE7FFE7FFE7FFE7C3
:101A000004984068D0B1FFE7FFF7EEFC0390FFE7D2
:101A100041F20000C4F202000068800300280CD4E8
:101A2000FFE7FFF7E1FC0399401A652804D3FFE7BD
:101A300003208DF8170098E2EAE719E0FFF7D4FCDD
:101A40000390FFE741F20000C4F202000068800347
:101A500000280CD5FFE7FFF7C7FC0399401A65285B
:101A600004D3FFE703208DF817007EE2EAE7FFE7E3
:101A7000FFE7FFE7049800788007002840F18D8099
:101A8000FFE741F20400C4F20200006810F00C0FFE
:101A900013D0FFE741F20400C4F20200006800F036
:101AA0000C00082829D1FFE741F20400C4F202002B
:101AB0000068C003002820D4FFE741F20000C4F210
:101AC000020000688007002809D5FFE70498006934
:101AD000012804D0FFE701208DF8170045E241F20C
:101AE0000001C4F20201086820F0F800049A52696B
:101AF00040EAC2000860FFE74EE00498006958B36E
:101B0000FFE70021C4F2422101200860FFF76CFCCE
:101B10000390FFE741F20000C4F202000068800772
:101B200000280CD4FFE7FFF75FFC0399401A032855
:101B300004D3FFE703208DF8170016E2EAE741F22D
:101B40000001C4F20201086820F0F800049A52690A
:101B500040EAC20008601EE00021C4F242210020D9
:101B60000860FFF741FC0390FFE741F20000C4F278
:101B700002000068800700280CD5FFE7FFF734FC5F
:101B80000399401A032804D3FFE703208DF81700B8
:101B9000EBE1EAE7FFE7FFE7FFE7049800780007DB
:101BA000002848D5FFE70498806918B3FFE740F2A2
:101BB0008041C4F2422101200860FFF715FC039028
:101BC000FFE741F22400C4F2020000688007002809
:101BD0000CD4FFE7FFF708FC0399401A032804D34D
:101BE000FFE703208DF81700BFE1EAE7012001F0CD
:101BF000EFF91FE040F28041C4F24221002008606A
:101C0000FFF7F2FB0390FFE741F22400C4F2020069
:101C10000068800700280CD5FFE7FFF7E5FB039974
:101C2000401A032804D3FFE703208DF817009CE136
:101C3000EAE7FFE7FFE7049800784007002840F153
:101C4000D880FFE700208DF8070041F21C00C4F2A5
:101C500002000068C000002813D4FFE7FFE741F24C
:101C60001C00C4F20200016841F08051016000686C
:101C700000F0805000900098FFE701208DF80700E9
:101C8000FFE747F20000C4F200000068C00500282A
:101C900022D4FFE747F20001C4F20001086840F4D3
:101CA00080700860FFF7A0FB0390FFE747F2000099
:101CB000C4F200000068C00500280CD4FFE7FFF75D
:101CC00093FB0399401A652804D3FFE703208DF89E
:101CD00017004AE1EAE7FFE7FFE70498C068012838
:101CE00009D1FFE741F22001C4F20201086840F087
:101CF0000100086031E00498C06868B9FFE741F26C
:101D00002001C4F20201086820F0010008600868A0
:101D100020F0040008601FE00498C06805280DD179
:101D2000FFE741F22001C4F20201086840F004001C
:101D30000860086840F0010008600CE041F22001F2
:101D4000C4F20201086820F001000860086820F071
:101D500004000860FFE7FFE7FFE7FFE70498C068BB
:101D6000E0B1FFE7FFF740FB0390FFE741F22000FF
:101D7000C4F202000068800700280ED4FFE7FFF7D6
:101D800033FB0399401A41F28931884204D3FFE7BB
:101D900003208DF81700E8E0E8E71BE0FFF724FBDD
:101DA0000390FFE741F22000C4F2020000688007C0
:101DB00000280ED5FFE7FFF717FB0399401A41F201
:101DC0008931884204D3FFE703208DF81700CCE067
:101DD000E8E7FFE79DF80700012809D1FFE741F296
:101DE0001C01C4F20201086820F080500860FFE77F
:101DF000FFE70498C069002800F0B380FFE741F2D4
:101E00000400C4F20200006800F00C00082800F092
:101E10008280FFE70498C06902285CD1FFE7602157
:101E2000C4F2422100200860FFF7DEFA0390FFE7CA
:101E300041F20000C4F202000068800100280CD5C5
:101E4000FFE7FFF7D1FA0399401A032804D3FFE70D
:101E500003208DF8170088E0EAE70498006AB0F5DF
:101E6000803F0CD1FFE741F20401C4F2020108688F
:101E700020F40030049A926810430860FFE741F2B2
:101E80000401C4F20201086820F47410049B1A6A69
:101E90005B6A1A43104308606021C4F242210120AA
:101EA0000860FFF7A1FA0390FFE741F20000C4F2D7
:101EB00002000068800100280CD4FFE7FFF794FAC5
:101EC0000399401A032804D3FFE703208DF8170075
:101ED0004BE0EAE71EE06021C4F2422100200860E6
:101EE000FFF782FA0390FFE741F20000C4F202001C
:101EF0000068800100280CD5FFE7FFF775FA039909
:101F0000401A032804D3FFE703208DF817002CE0C4
:101F1000EAE7FFE724E00498C069012804D1FFE75D
:101F200001208DF8170020E041F20400C4F2020005
:101F300000680290029800F480300499096A88428F
:101F400008D1FFE7029800F470100499496A8842AA
:101F500004D0FFE701208DF8170006E0FFE7FFE758
:101F6000FFE700208DF81700FFE79DF8170006B087
:101F700080BD000080B582B00190019801F098F812
:101F800002B080BD82B00190ADF8021002B070477F
:101F900081B0009001B0704780B588B00790079875
:101FA00000680068069007980068C0680590079868
:101FB000006840690490002003900290069800F0A9
:101FC0000F000390039888B9FFE79DF8180080067A
:101FD00000280AD5FFE79DF814008006002804D5E4
:101FE000FFE7079801F012F976E1FFE70398002870
:101FF00000F0B480FFE79DF81000C00738B9FFE794
:10200000BDF8140010F4907F00F0A880FFE79DF861
:102010001800C00758B1FFE79DF81500C00730B1A0
:10202000FFE70799086C40F001000864FFE79DF89E
:102030001800400700280BD5FFE79DF81000C007E7
:1020400030B1FFE70799086C40F002000864FFE731
:102050009DF81800800700280BD5FFE79DF81000B9
:10206000C00730B1FFE70799086C40F0040008642E
:10207000FFE79DF818000007002811D5FFE79DF83D
:1020800014008006002805D4FFE79DF81000C00763
:1020900030B1FFE70799086C40F008000864FFE7DB
:1020A0000798006C002858D0FFE79DF818008006BC
:1020B00000280AD5FFE79DF814008006002804D503
:1020C000FFE7079801F0A2F8FFE70798006840696A
:1020D000C0F3801002900798006C0007002803D41A
:1020E000FFE7029888B3FFE7079801F057F80798D1
:1020F000006840694006002822D5FFE7079801687C
:10210000486920F0400048610798806B98B1FFE76C
:102110000798816B43F27D10C0F600004863079872
:10212000806BFEF7ADFC28B1FFE70798806B416B31
:102130008847FFE703E00798FFF72AFFFFE703E080
:102140000798FFF725FFFFE706E00798FFF720FF56
:10215000079900200864FFE7FFE7BDE00798006BE0
:10216000012840F09980FFE79DF81800C00600287C
:1021700040F19280FFE79DF81400C006002840F16E
:102180008B80FFE7FFE70020019007980068006858
:10219000019007980068406801900198FFE7079850
:1021A000006840694006002848D5FFE70798806B23
:1021B00000684068ADF80200BDF80200E8B3FFE730
:1021C000BDF802000799898D884236DAFFE7BDF82D
:1021D00002000799C8850798806B8069202824D061
:1021E000FFE707980168C86820F48070C860079806
:1021F0000168486920F00100486107980168486952
:1022000020F0400048610799202081F83E0007999E
:102210000020086307980168C86820F01000C860B3
:102220000798806BFEF7EEFBFFE70798818DC28D64
:10223000891A89B2FFF7A6FEFFE74DE00799888D5E
:10224000C98D401AADF800000798C08D18B3FFE79C
:10225000BDF80000F8B1FFE707980168C86820F4EE
:102260009070C86007980168486920F001004861D3
:102270000799202081F83E000799002008630798FD
:102280000168C86820F01000C8600798BDF8001009
:10229000FFF778FEFFE71FE09DF818000006002812
:1022A0000AD5FFE79DF814000006002804D5FFE7D3
:1022B000079801F0AFF80FE09DF8180040060028DD
:1022C0000AD5FFE79DF814004006002804D5FFE773
:1022D000079800F087FFFFE708B080BD80B582B0A7
:1022E0000090009820B9FFE701208DF807003EE03C
:1022F0000098806908B1FFE700E0FFE7009890F8D8
:102300003D0040B9FFE70099002081F83C000098AB
:1023100000F032F8FFE70099242081F83D00009892
:102320000168C86820F40050C860009801F014F8F3
:1023300000980168086920F49040086100980168DD
:10234000486920F02A00486100980168C86840F494
:102350000050C860009900200864009A202182F88B
:102360003D10009A82F83E108DF80700FFE79DF8B7
:10237000070002B080BD000080B590B00F90002033
:102380000E900D900C900B900F98006843F6000192
:10239000C4F2010188423AD1FFE7FFE741F2180099
:1023A000C4F20200016841F480410160006800F459
:1023B00080400A900A98FFE7FFE741F21800C4F254
:1023C0000200016841F004010160006800F00400AF
:1023D00009900998FFE74FF400700B9002200C90D1
:1023E00003200E9040F60000C4F2010004900BA9F7
:1023F0000591FEF71DFE049805994FF480620B923B
:1024000000220C9201220D92FEF712FE60E00F985E
:10241000006844F60001C4F20001884257D1FFE78A
:10242000FFE741F21C00C4F20200016841F4802180
:102430000160006800F4802008900898FFE7FFE73B
:1024400041F21800C4F20200016841F0200101606D
:10245000006800F0200007900798FFE74FF48070B5
:102460000B9002200C9003200E9041F20040C4F229
:10247000010002900BA90391FEF7DAFD029803997F
:102480004FF400720B9200220C920D92FEF7D0FDD9
:10249000FFE70421C4F2010108680690069820F0C5
:1024A00030000690069840F0E0600690069840F0F4
:1024B0003000069006980860FFE727200190002270
:1024C0001146FFF72FF80198FFF722F8FFE7FFE723
:1024D00010B080BD81B000900098006843F6000104
:1024E000C4F20101884207D1FFE740F2A461C2F2C1
:1024F000000101200870FFE701B0704784B002902E
:102500000191ADF80220029890F83D0020283ED1BC
:10251000FFE7019820B1FFE7BDF8020020B9FFE70F
:1025200001208DF80F0036E0FFE7029890F83C009C
:10253000012804D1FFE702208DF80F002BE002995B
:10254000012081F83C00FFE7FFE70198029908624B
:10255000BDF8020002998884BDF802000299C8847F
:102560000299002008640299212081F83D00FFE7CC
:102570000299002081F83C00FFE702980168C868D2
:1025800040F08000C86000208DF80F0003E00220BA
:102590008DF80F00FFE79DF80F0004B070470000B2
:1025A00081B000900098006843F60001C4F2010178
:1025B000884207D1FFE740F6B021C2F200010120B6
:1025C0000870FFE701B07047FFE7FEE782B00190B7
:1025D00001980090FFE70098411E009108B1FFE7C5
:1025E000F9E702B07047000080B588B0002007907E
:1025F00006900590049041F60040C4F2010002905C
:102600004FF48061FEF7C8FB02984FF40061FEF7BB
:10261000C3FBFFE741F21800C4F20200016841F079
:1026200080010160006800F0800003900398FFE7DC
:1026300011200590032007904FF48060049041F62C
:102640000040C4F20100009004A90191FEF7F0FCE3
:10265000009801994FF400620492FEF7E9FC08B07B
:1026600080BD000080B586B00022049241F6004093
:10267000C4F2010001904FF480610291FEF79CFECC
:1026800001984FF4006101220392FEF795FE642049
:10269000FFF79CFF01980299039AFEF78DFEFFE772
:1026A00041F60040C4F201004FF40061FEF76CFEF9
:1026B000C0B1FFE7049801300490049864280DD15C
:1026C000FFE741F60040C4F201004FF480610022B0
:1026D000FEF772FE4FF0FF30059010E00A20FFF782
:1026E00075FFDDE741F60040C4F201004FF4806160
:1026F00000220092FEF760FE00980590FFE7059823
:1027000006B080BD80B584B041F60040C4F201003F
:1027100001904FF4806101220092FEF74DFE009A75
:1027200001984FF400610291FEF746FE6420039089
:10273000FFF74CFF019802990022FEF73DFE039837
:10274000FFF744FF04B080BD80B584B041F600407F
:10275000C4F2010000904FF4006101910022FEF7E5
:102760002BFE00984FF4806101220292FEF724FEB6
:1027700064200390FFF72AFF00980199029AFEF760
:102780001BFE0398FFF722FF04B080BD80B582B026
:102790008DF8070000208DF806008DF80600FFE791
:1027A0009DF8060007283EDCFFE741F60040C4F232
:1027B00001004FF480610022FEF7FEFD6420FFF768
:1027C00005FF9DF80700000600280AD5FFE741F63F
:1027D0000040C4F201004FF400610122FEF7ECFD5D
:1027E00009E041F60040C4F201004FF4006100220C
:1027F000FEF7E2FDFFE79DF8070040008DF80700B7
:1028000041F60040C4F201004FF480610122FEF75E
:10281000D3FD6420FFF7DAFEFFE79DF806000130E4
:102820008DF80600BCE7FFF71DFF02B080BD000079
:1028300080B582B040F25040C2F2000000684068AB
:1028400048B1FFE740F25040C2F200000068416822
:102850008847019002E000200190FFE7019802B054
:1028600080BD000080B5FDF7C1FF80BD80B582B09E
:1028700001900198FDF7BEFF02B080BD80B582B027
:1028800001900198FDF7C0FF02B080BD80B592B005
:102890000020119010900F900E90FFE741F2180069
:1028A000C4F20200016841F040010160006800F0DC
:1028B00040000D900D98FFE7FFE741F21800C4F2C9
:1028C0000200016841F010010160006800F0100092
:1028D0000C900C98FFE7FFE741F21800C4F20200E9
:1028E000016841F080010160006800F080000B90F9
:1028F0000B98FFE7FFE741F21800C4F202000168FD
:1029000041F020010160006800F020000A900A9860
:10291000FFE7FFE741F21800C4F20200016841F04E
:1029200004010160006800F0040009900998FFE7C5
:1029300041F60000C4F201000390402104910122FD
:102940000592FEF739FD059A41F60040C4F20100F8
:1029500002904FF478610191FEF72EFD0499059ADB
:1029600041F20000C4F201000790FEF725FD039834
:10297000049A05990E920F911091032106911191DD
:102980000EA90891FEF754FBDDF804C00298059BE0
:10299000069A0899CDF838C00F9310931192FEF75C
:1029A00047FB0398059A08994FF440430E93002380
:1029B0000F931092FEF73CFBDDF810C0059B069AC2
:1029C00007980899CDF838C00F9310931192FEF72D
:1029D0002FFB12B080BD000080B582B040F21C60B9
:1029E000C2F20000019043F60001C4F2010101604F
:1029F0004FF4E131416000218160C16001610C222E
:102A000042618161C161FFF769FC18B1FFE7FDF721
:102A100089FFFFE702B080BD80B582B040F2606000
:102A2000C2F20000019044F60001C4F2000101600E
:102A30004FF4E131416000218160C16001610C22ED
:102A400042618161C161FFF749FC18B1FFE7FDF701
:102A500069FFFFE702B080BDFFE7FEE7FFE7FEE7A3
:102A600088B0079006910592079800F0070004903F
:102A70000498C0F10700052803D3FFE70420019064
:102A800004E00498C0F107000190FFE7019803906B
:102A900004980430062803D8FFE70020009003E0E4
:102AA000049803380090FFE7009802900698039975
:102AB000012202FA01F101390840029B9840059970
:102AC0009A40013A1140084308B0704780B582B07F
:102AD00001900198FFF7CAFE02B080BD80B582B0B8
:102AE00001900198FFF7CAFE02B080BD89B007903F
:102AF00006910592049307984068039006980799F9
:102B00008968884206DAFFE705980799C96888420C
:102B100004DBFFE74FF0FF3008902CE00598C11769
:102B200000EB5170C01002900398029900EBC110A5
:102B30000699084401900598C11700EB517121F0E6
:102B40000701401A0090049848B1FFE7009901205E
:102B500000FA01F2019908781043087008E0009922
:102B6000012000FA01F20199087890430870FFE70C
:102B700000200890FFE7089809B0704780B582B040
:102B8000019000208DF803008DF80300FFE79DF809
:102B90000300072814DCFFE79DF80300002100F084
:102BA0005FF901989DF8031000EBC110802100F03F
:102BB0007BF9FFE79DF8030001308DF80300E6E79D
:102BC00002B080BD80B582B0022000F0EFF83F2057
:102BD00000F010F90020019000F0C0F8019800F01A
:102BE000D1F8A12000F04CF9C82000F049F9019972
:102BF000084600F059F87F2000F082F8A42000F089
:102C00003FF9A62000F03CF90198082100F086F871
:102C10000120009000F00AF80098019900F044F8B3
:102C2000AF2000F02DF902B080BD000080B582B069
:102C30008DF807009DF8070030B1FFE79DF8070009
:102C4000012801D0FFE70BE08D2000F019F99DF875
:102C50000710102000EB8100C0B200F011F9FFE76F
:102C600002B080BD80B582B08DF8070040F2480008
:102C7000C2F200000078022801D0FFE712E09DF8C0
:102C80000700802801DBFFE70CE09DF8070000F05B
:102C90000F0000F0F5F89DF807000009103000F073
:102CA000EFF8FFE702B080BD80B582B08DF8070075
:102CB0008DF806109DF8070030B1FFE79DF807007A
:102CC000012801D0FFE718E09DF8060030B1FFE7CA
:102CD0009DF80600012801D0FFE70EE0DA2000F0A1
:102CE000CFF89DF8070000019DF8061000EB411099
:102CF0000230C0B200F0C4F8FFE702B080BD0000AF
:102D000080B582B08DF80700812000F0B9F89DF8F9
:102D1000070000F0B5F802B080BD000080B582B0B9
:102D20008DF807008DF806109DF807000F2805DCC8
:102D3000FFE79DF80600102801DBFFE70CE0D52037
:102D400000F09EF89DF807009DF8061000EB0110BA
:102D5000C0B200F095F8FFE702B080BD80B582B048
:102D60008DF807009DF80700402801DBFFE707E02A
:102D7000D32000F085F89DF8070000F081F8FFE708
:102D800002B080BD80B582B08DF807009DF80700C5
:102D9000402801DBFFE706E09DF807004030C0B2A5
:102DA00000F06EF8FFE702B080BD000080B582B091
:102DB0008DF807009DF8070058B1FFE79DF8070060
:102DC000012806D0FFE79DF80700022801D0FFE7A1
:102DD0000EE0202000F054F89DF8070000F050F8B5
:102DE0009DF8070040F24801C2F200010870FFE7B9
:102DF00002B080BD80B582B08DF807009DF8070055
:102E00000F2805DBFFE79DF80700402801DBFFE7FF
:102E100007E0A82000F034F89DF8070000F030F833
:102E2000FFE702B080BD000080B582B08DF80700DA
:102E300040F24800C2F200000078022801D0FFE70B
:102E40000CE09DF80700082801DBFFE706E09DF88D
:102E50000700B030C0B200F013F8FFE702B080BD49
:102E600080B582B08DF807008DF806109DF8070038
:102E7000FFF7DAFF9DF80600FFF7F4FE02B080BD11
:102E800080B582B08DF80700FFF73CFC7820FFF793
:102E90007DFC0020FFF77AFC9DF80700FFF776FC29
:102EA000FFF752FC02B080BD80B582B00190ADF852
:102EB00002100020ADF80000019808B9FFE722E0F9
:102EC000FFF720FC7820FFF761FC4020FFF75EFC55
:102ED0000020ADF80000FFE7BDF80000BDF80210CB
:102EE00088420DDAFFE70198BDF80010405CFFF75B
:102EF0004DFCFFE7BDF800000130ADF80000EBE746
:102F0000FFF722FCFFE702B080BD00007047000021
:102F1000F0B585B0039040F25C40C2F20000D0F8FA
:102F2000B80101304CF6CD41CCF6CC41A0FB0121DB
:102F3000C90801EB8101A0EB41000290039820B980
:102F4000FFE74FF0FF3004903FE0029840F25C4111
:102F5000C2F20001D1F8BC11884232D0FFE740F242
:102F60005C41C2F20001D1F8B8012C2300FB03122E
:102F7000009200FB03F7039C0194D4F810E065690C
:102F800026686068A368D4F80CC0CE515561C2F8B9
:102F900010E0C2F80CC093605060A069E369D4F8F7
:102FA00020C0D4F824E0A46A9462C2F824E0C2F8F5
:102FB00020C0D36190610298C1F8B801002004904C
:102FC00003E04FF0FF300490FFE7049805B0F0BD38
:102FD00082B00190019840F20401C2F20001096838
:102FE000C90844F6D352C1F26202A1FB0221890949
:102FF00048430090FFE700BFFFE70098411E0091A3
:103000000028F8D1FFE702B07047000070470000C9
:1030100080B582B000900098FDF7BCFC014640F2FC
:103020005040C2F200000160006818B1FFE70020C4
:10303000019003E04FF0FF300190FFE7019802B0EC
:1030400080BD000080B590B00F900E910D920C9352
:1030500000200B900E9804900D980590FFE70C98B7
:103060000B99405CE8B1FFE70C980B9908440AA95A
:10307000FDF76EFC099009990B9808440B9000200D
:1030800008900A986946FDF775FC28B9FFE70F9884
:103090006946FDF7D3FBFFE7069804900798059073
:1030A000DDE70F98C1698847002010B080BD00009F
:1030B00080B582B0009000980138B0F1807F03D3D2
:1030C000FFE70120019019E0009801384EF2140149
:1030D000CEF2000108604FF0FF300F2100F078FAC7
:1030E0004EF21801CEF20001002008604EF21002EC
:1030F000CEF20002072111600190FFE7019802B0B3
:1031000080BD000080B5FEF775F980BD80B590B038
:1031100006A800902821FDF72EF8009800230593BB
:103120000493039302930193012206924FF480319A
:10313000079108930A9202220D920E914FF4E0112A
:103140000F91FEF7D9FB18B1FFE7FDF7EBFBFFE7A7
:103150000F20019002210291002003904FF4806221
:103160000492059001A8FEF7FFF918B1FFE7FDF7FB
:10317000D9FBFFE710B080BD7047000080B582B07A
:1031800001900198406A009000990020C88500993C
:10319000C8840098FEF7FCFE02B080BD81B00090AC
:1031A00000980168C86820F49070C86000980168B1
:1031B000486920F0010048610098006B012807D1A0
:1031C000FFE700980168C86820F01000C860FFE7BA
:1031D0000099202081F83E0000990020086301B08A
:1031E0007047000080B582B0019001980168C868FE
:1031F00020F04000C8600199202081F83D0001982E
:10320000FFF7CEF9002002B080BD000080B586B087
:103210000490049890F83E00222840F09480FFE744
:1032200004988068B0F5805F15D1FFE704980069C5
:1032300088B9FFE7002003900498806A0290049800
:10324000006840686FF35F20029908800499886ADB
:103250000230886225E00498806A03900020029082
:1032600004988068B0F5805F08D0FFE70498806814
:1032700050B9FFE70498006930B9FFE70498006887
:1032800040680399087007E004980068406800F0FF
:103290007F0003990870FFE70499886A013088620B
:1032A000FFE70499C88D0138C8850004002846D17D
:1032B000FFE704980168C86820F02000C8600498FF
:1032C0000168C86820F48070C86004980168486983
:1032D00020F0010048610499202081F83E00049804
:1032E000006B012823D1FFE70499002008630498AC
:1032F0000168C86820F01000C86004980068006881
:10330000C00600280ED5FFE7FFE7002001900498D3
:103310000068006801900498006840680190019876
:10332000FFE7FFE70498818DFEF72CFE03E0049889
:10333000FFF7D0F8FFE700208DF8170007E0002026
:103340008DF8170003E002208DF81700FFE79DF8C5
:10335000170006B080BD000080B584B003900398CC
:103360000068006920F44050039A1168D268104345
:103370000861039988680A69496910430843029003
:1033800003980068C06841F20C61884302990843C1
:1033900003990968C86003980068406920F4407088
:1033A000039A11689269104348610398006843F6D4
:1033B0000001C4F20101884204D1FFE7FEF718FAC8
:1033C000019003E0FEF702FA0190FFE7019819214E
:1033D0004843039A116852689200B0FBF2FC48F22D
:1033E0001F52C5F2EB12ACFB02304309642003FB11
:1033F00010CC322000EB0C10A0FB0202F02000EAFF
:10340000521000EB0310C2F343121044886004B062
:1034100080BD000083B00190019890F83D00212804
:103420003AD1FFE701988068B0F5805F13D1FFE7DC
:103430000198006978B9FFE70198006A0090009848
:1034400000886FF35F200199096848600199086A54
:103450000230086208E0019A106A411C116200788B
:10346000019909684860FFE70199C88C0138C88450
:10347000000468B9FFE701980168C86820F080007F
:10348000C86001980168C86840F04000C860FFE764
:1034900000208DF80B0003E002208DF80B00FFE701
:1034A0009DF80B0003B0704780B582B000208DF806
:1034B000070043F60000C4F20100006880060028FF
:1034C00010D5FFE743F60400C4F2010000688DF850
:1034D00007009DF8070040F2A861C2F2000100F069
:1034E00001F9FFE740F21C60C2F20000FEF754FD54
:1034F00002B080BD80B540F26060C2F20000FEF70D
:103500004BFD80BDFFE7FEE780B584B0029040F23E
:103510005440C2F2000000680190FFE7019878B1C2
:10352000FFE7019800680299FCF730FE18B9FFE741
:103530000198039007E00198406A0190FFE7EDE7EA
:1035400000200390FFE7039804B080BD80B584B0ED
:10355000029040F25840C2F2000000680190FFE77C
:10356000019878B1FFE7019800680299FCF70EFE18
:1035700018B9FFE70198039007E0019840690190AE
:10358000FFE7EDE700200390FFE7039804B080BD5C
:1035900081B08DF803009DF9030000280ED4FFE7E9
:1035A0009DF9031001F01F02012090404A094EF2DC
:1035B0000011CEF2000141F82200FFE701B0704790
:1035C0004EF60C50CEF200000068C0F302207047A7
:1035D00082B08DF8070000919DF9070000280AD4F9
:1035E000FFE7009800019DF907104EF20042CEF26D
:1035F000000288540BE0009800019DF8071001F0CC
:103600000F014EF61452CEF200028854FFE702B0CA
:103610007047000083B00290029800F0070000900D
:103620004EF60C51CEF200010868019001984FF659
:10363000FF02104001900198009A40EA0220002207
:10364000C0F2FA52104301900198086003B070472D
:1036500080B582B00190009140F6B021C2F2000125
:103660000020087040F21C60C2F2000001A9012293
:10367000FEF744FFFFE740F6B020C2F200000078FA
:1036800008B9FFE7F7E7002002B080BD80B582B03F
:1036900000200190FDF7BCFEFFF738FDFFF7F6F8BC
:1036A000FFF79AF9FFF7B8F940F2A860C2F20000FC
:1036B00000F00CF8FDF720F944F69E00C0F600007B
:1036C00000F068F800F02EF8FFE7FEE781B0009008
:1036D00000990020C1F800040099C1F8040401B069
:1036E0007047000083B08DF80B0001910198D0F86D
:1036F000000401306FF39F20009000980199D1F8E9
:10370000041488420BD0FFE79DF80B000199D1F813
:103710000024885400980199C1F80004FFE703B021
:103720007047000080B584B044F6D700C0F60000B2
:10373000039044F6CC00C0F600000190FDF750F86D
:1037400044F6D100C0F60000FFF762FCFFF770F806
:10375000FDF73AF80198FDF705F90290029840B993
:10376000FFE7019944F6AD00C0F6000000F012F842
:103770000EE0029881698847029948684969FCF718
:10378000FAFC0298039B10221146FFF75BFCFFE74F
:1037900004B080BD0FB4054B10B503A9044A0298CC
:1037A00000F0DAF810BC5DF814FB00005136000898
:1037B0000000002002E008C8121F08C1002AFAD148
:1037C00070477047002001E001C1121F002AFBD1A1
:1037D000704700002DE9FF5F82B00021DDE9043071
:1037E000020DDDF840B0034318D044F61050A2F2A9
:1037F000FF3242431514119801281FD0A5EB0B008E
:10380000401C5FEA000A4FF000064E4FDFF8389187
:10381000B046504615D5CAF1000413E011980124B2
:103820004AA3012801D16FEA0B010298119AC0E95D
:103830000031C0E9024206B0BDE8F09FCBF10000C4
:10384000DFE704460021404A491842EB0450CDE925
:10385000001012E0E00707D032463B46404649469A
:10386000FCF790FD8046894632463B461046194695
:10387000FCF788FD06460F466410002CEAD1DDE90E
:103880000401DDE90023BAF1000F06DAFCF77AFD46
:1038900042464B46FCF776FD05E0FCF7E5FD424667
:1038A0004B46FCF7E1FD04460E460022284BFCF790
:1038B00063FE03D84FF0FF30014607E00022254B9E
:1038C00020463146FCF7B7FCFCF73DFE102409E02A
:1038D000002C0ADB0A220023FCF77CFC039B30321D
:1038E0001A55641E50EA0102F2D1641C039AC4F115
:1038F00011031444119A012A03D0012208430DD167
:103900000AE0084304D000204FF0110B119072E739
:10391000A3EB0B056D1E0DE05B4504DD4FF00002CF
:1039200005F1010504E003DA4FF00002A5F10105FD
:10393000002AECD002981199C0E90231C0E9004593
:1039400079E70000000014400000F03F3000000064
:103950000000F0430000E03F2DE9FF4F95B09B468B
:103960008946064600250FE2252877D10024274600
:10397000F84A0121059400E0044316F8013F203B7A
:1039800001FA03F01042F7D130782A2811D06FF0F5
:103990002F033078A0F13002092A16D8059A44F096
:1039A000020402EB820203EB42021044761C0590F3
:1039B000EFE759F8042B0592002A03DA504244F449
:1039C0000054059044F00204761C30782E2816D15D
:1039D00016F8010F44F004042A280DD06FF02F02CE
:1039E0003078A0F13003092B09D807EB870302EBED
:1039F0004303C718761CF3E759F8047B761C30782C
:103A00006C280FD006DC4C2817D068280DD06A2807
:103A100014D104E0742810D07A280FD10DE044F4BA
:103A200000140AE044F4801401E044F44014727875
:103A3000824202D104F58014761C761C3078662808
:103A40000BD013DC582877D009DC002875D0452826
:103A5000F6D04628F4D047281AD19DE118E0632813
:103A600035D0642879D0652812D195E1702873D0BB
:103A700008DC6728F1D069286FD06E280DD06F2838
:103A800006D1B5E073282CD0752875D0782874D06D
:103A90005A46179990476D1C75E1C4F302500228ED
:103AA00009D003280DD0D9F8001004280DD00D60DE
:103AB00009F1040967E1D9F80010EA17C1E90052D9
:103AC000F6E7D9F800100D80F2E70D70F0E719F86D
:103AD000041B8DF8001000208DF80100EA4601203B
:103AE00003E059F804AB4FF0FF3061074FF00001DD
:103AF00002D40DE008F101018846B9420FDA804591
:103B0000F8DB1AF808100029F4D108E008F10101E7
:103B100088468142FADB1AF808100029F6D1059888
:103B20005B46A0EB080721463846179A00F094FA46
:103B3000284400EB080507E04DE029E10DE01AF804
:103B4000010B5A4617999047B8F10108F7D25B4626
:103B500021463846179A13E142E00A220092C4F344
:103B600002524FF0000A022A08D059F804CB032A67
:103B70004FEAEC710AD00DE029E02AE009F10701D3
:103B800021F00702F2E802C1914609E00FFA8CFC2D
:103B90004FEAEC71042A03D14FFA8CFC4FEAEC7126
:103BA000002907DA0A460021DCF1000C61EB020172
:103BB0002D2202E0220504D52B228DF804200122BB
:103BC00003E0E20701D02022F7E7904659E00A21FE
:103BD00002E010220DE010214FF0000A00910BE0EE
:103BE00010224FF0000A44F004040827009203E07A
:103BF00008224FF0000A0092C4F30252022A05D0B4
:103C000059F804CB0021032A08D009E009F1070183
:103C100021F00702F2E802C1914605E01FFA8CFC90
:103C2000042A01D10CF0FF0C4FF00008220728D520
:103C3000702806D0009B83F0100353EA0A0305D0D6
:103C40000EE040228DF80420012208E05CEA010227
:103C500006D030228DF804208DF80500022290460F
:103C6000009B83F0080353EA0A030AD15CEA0102CD
:103C700001D1620705D530228DF804204FF00108EC
:103C80007F1E582804D034A003900EA802900DE0A7
:103C900036A0F9E753466046009AFCF79BFA844643
:103CA0000398825C0298401E029002705CEA010058
:103CB000F0D1029806A9081A00F1200A600702D57F
:103CC00024F4803400E00127574502DDA7EB0A0009
:103CD00000E0002000EB0A01009005984144401AE2
:103CE0000590E00306D45B462146179A059800F03C
:103CF000B3F90544002706E001A85A46C05D1799AC
:103D000090476D1C7F1C4745F6DBE0030CD55B46F6
:103D10002146179A059800F09FF9054404E03020E9
:103D20005A46179990476D1C0099481E009000292B
:103D3000F5DC08E0029802995A460078491C029185
:103D4000179990476D1CBAF10001AAF1010AF1DC44
:103D500065E100000928010030313233343536374F
:103D600038396162636465660000000030313233C7
:103D70003435363738394142434445460000000067
:103D800000F058F90544761C307800287FF4ECAD3B
:103D900019B02846BDE8F08F620700D4062709F164
:103DA000070222F0070CFCE80223E14603F000487A
:103DB0005FEA080C02D00FF2702C0DE05FEA045CA1
:103DC00002D50FF2682C07E05FEAC47C02D00FF244
:103DD000602C01E0AFF2700C4FF0FF3823F000438D
:103DE000CDF850C065280CD006DC452809D04628FF
:103DF0001DD047283DD13DE0662818D067287ED1E8
:103E000038E00021112F01DB112000E0781CCDE902
:103E1000000106A90EA8FFF7DDFCDDE90F010E9AEF
:103E200003910021009207F1010A04914DE04FF047
:103E300000400097CDE9011006A90EA8FFF7CAFCC3
:103E4000DDE90F0203920E9B11990022DDF80CA010
:103E50000093049211B9791C00EB010AB7EB0A0038
:103E600004D4C0F1FF3007F1010A0490AAEB070067
:103E7000019044E0012F00DA01270021112F01DD1C
:103E8000112000E03846CDE9000106A90EA8FFF791
:103E9000A1FCDDE90F010E9A03910021049100922B
:103EA000BA4621070CD40399514500DA8A46BAF183
:103EB000010F05DD009AAAF10101515C302908D0FB
:103EC000B84202DA10F1040F06DA0121CDE901103F
:103ED00015E0AAF10101E9E7002805DC0499014495
:103EE0000491AAEB000102E0411C514500DD8A4625
:103EF0000499401A401C01904FF0004002902007A6
:103F000004D40198504501DBCDF8048000208DF8E1
:103F10004F0002980DF14F07B0F1004F25D02B2034
:103F20000E9002984FF0020800280CDA40420290EE
:103F30002D200E9007E00A210298FCF735F9303168
:103F4000029007F8011DB8F10001A8F10108F2DCA8
:103F500002980028EFD1791E0E980870307800F092
:103F6000200040F0450007F8020D12A8C01B00F128
:103F700007081498007800B1012000EB0A010198AD
:103F800001EBE07105984144401A401E0590E003A2
:103F900006D45B462146179A059800F05DF8054463
:103FA0001498007818B15A46179990476D1CE00391
:103FB00024D55B462146179A059800F04DF8054434
:103FC0001CE00498002807DBDDE90301884203DDDB
:103FD0000098405C179901E0179930205A469047A5
:103FE000049805F10105401C04900198401E0190C1
:103FF00004D12E205A46179990476D1CBAF1000142
:10400000AAF1010ADDDC05E017F8010B5A46179901
:1040100090476D1CB8F10001A8F10108F4DC5B4683
:104020002146179A0598ABE62D0000002B000000F2
:10403000200000002DE9F041044600251E461746E9
:10404000880404D405E039462020B0476D1C641E66
:10405000F9D52846BDE8F0812DE9F0410446002558
:104060001E469046C80301D5302700E0202788046B
:1040700004D505E041463846B0476D1C641EF9D5AD
:104080002846BDE8F08100000000000000000102A9
:1040900003040607080900000000010203040000F1
:1040A000000000000000000000000000000000FE12
:1040B000020202020202003F2020202020200000F5
:1040C000000000000000000000000000000000FEF2
:1040D000020202020202003F20202020202000FED7
:1040E000020202020202003F20202020202000FEC7
:1040F000020202020202003F20202020202000FEB7
:10410000020202020202003F20202020202000FEA6
:10411000020202020202003F20202020202000FE96
:10412000020202020202003F202020202020000084
:10413000000000000000000000000000000000007F
:10414000000000000000000000000000000000006F
:10415000000000000000000000000000000000FE61
:10416000020202020202003F20202020202000FE46
:10417000020202020202003F20202020202000FE36
:10418000020202020202003F20202020202000FE26
:10419000020202020202003F20202020202000FE16
:1041A000020202020202003F20202020202000FE06
:1041B000020202020202003F20202020202000FEF6
:1041C000020202020202003F20202020202000FEE6
:1041D000020202020202003F20202020202000FED6
:1041E000020202020202003F20202020202000FEC6
:1041F000020202020202003F20202020202000FEB6
:10420000020202020202003F20202020202000FEA5
:10421000020202020202003F20202020202000FE95
:10422000020202020202003F20202020202000FE85
:10423000020202020202003F20202020202000FE75
:10424000020202020202003F20202020202000FE65
:10425000020202020202003F202020202020000053
:10426000000000000000000000000000000000004E
:10427000000000000000000000000000000000003E
:10428000000000000000000000000000000000002E
:10429000000000000000000000000000000000001E
:1042A000000000000000000000000000000000000E
:1042B00000F80000000000000033000000000010C3
:1042C0000C02100C02000000000000000000004082
:1042D000C07840C0780000043F04043F0400007030
:1042E0008888FC08300000182020FF211E00F008FC
:1042F000F0806018000000310C031E211E0000F049
:104300000888700000001E21232C1927211000129C
:104310000E0000000000000000000000000000008F
:1043200000E018040200000000071820400000020E
:104330000418E00000000040201807000000404082
:1043400080F0804040000202010F010202000000E4
:104350000000E0000000000101010F010101000068
:10436000000000000000009070000000000000004D
:104370000000000000000001010101010100000037
:1043800000000000000000303000000000000000CD
:104390000000C0380400006018070000000000E0C2
:1043A00010080810E000000F102020100F0000007F
:1043B0001010F8000000000020203F2020000070B6
:1043C00008080808F00000302824222130000030BE
:1043D0000808088870000018202121221C00000015
:1043E000804030F8000000060524243F242400F813
:1043F0008888880808000019202020110E0000E09D
:10440000108888900000000F112020201F00001845
:104410000808886818000000003E010000000070D5
:10442000880808887000001C222121221C0000F04E
:1044300008080810E0000001122222110F000000FD
:1044400000C0C0000000000000303000000000008C
:10445000008000000000000000E0000000000000FC
:1044600080402010080000010204081020000040D5
:1044700040404040400000020202020202000008E8
:10448000102040800000002010080402010000708D
:104490004808088870000000003037000000C03075
:1044A000C828E810E000071827282F281700000068
:1044B000C038E0000000203C23020227382008F822
:1044C000888888700000203F202020110E00C03016
:1044D000080808083800071820202010080008F8ED
:1044E00008080810E000203F202020100F0008F8E6
:1044F0008888E8081000203F20202320180008F8B2
:104500008888E8081000203F200003000000C03029
:1045100008080838000007182020221E020008F8AA
:1045200008000008F808203F210101213F20000871
:1045300008F8080800000020203F202000000000AC
:104540000808F8080800C08080807F00000008F894
:1045500088C028180800203F20012638200008F8CD
:10456000080000000000203F20202020300008F834
:10457000F800F8F80800203F013E013F200008F84D
:1045800030C00008F808203F200007183F00E01066
:1045900008080810E0000F10202020100F0008F875
:1045A00008080808F000203F210101010000E01088
:1045B00008080810E0000F10282830504F0008F8B5
:1045C000888888887000203F2000030C302000700D
:1045D0008808080838000038202121221C0018080B
:1045E00008F8080818000000203F2000000008F824
:1045F00008000008F808001F202020201F0008786D
:10460000880000C83808000007380E01000008F8CC
:1046100000F800F8080000033E013E0300000818FF
:1046200068808068180820302C03032C302008385C
:10463000C800C83808000000203F20000000100813
:104640000808C8380800203826212020180000005B
:1046500000FE020202000000007F40404000000413
:1046600038C000000000000000010638C000000251
:104670000202FE000000004040407F0000000000F9
:10468000040202040000000000000000000000001E
:104690000000000000008080808080808080000218
:1046A0000204000000000000000000000000000004
:1046B00080808000000000192424123F200010F0A8
:1046C000008080000000003F112020110E0000003B
:1046D000008080800000000E1120202011000000CA
:1046E00080808090F000001F202020103F200000DC
:1046F000808080800000001F242424241700008074
:1047000080E0909020000020203F2020000000004A
:10471000808080808000006B94949493600010F0FF
:10472000008080800000203F210000203F2000808A
:104730009898000000000020203F2020000000008A
:1047400000809898000000C08080807F000010F0FA
:10475000000080808000203F2406293020000010C7
:1047600010F8000000000020203F20200000808082
:10477000808080808000203F20003F20003F80809C
:10478000008080800000203F210000203F200000AA
:10479000808080800000001F202020201F0080805B
:1047A00000808000000080FF912020110E0000009A
:1047B000008080008000000E11202091FF8080800A
:1047C00080008080800020203F2120000100000028
:1047D00080808080800000332424242419000080FD
:1047E00080E0808000000000001F202010008080FA
:1047F000000000808000001F202020103F208080CB
:1048000080008080800000030C300C03000080805A
:10481000008080008080010E300C07380601008087
:104820008080008080000020310E2E3120008080AA
:10483000800000808080008186781806010000805A
:104840008080808080000021302C222130000000F8
:10485000000000FC020200000000013E4040000099
:104860000000FF00000000000000FF000000020246
:10487000FC000000000040403E010000000000027B
:10488000010202040200000000000000000000001D
:10489000000000000000000000000000000048656B
:1048A0006C6C6F20576F726C64210D0A0043616E4F
:1048B000206E6F742067657420446973706C617931
:1048C0004465766963652025730D0A004F4C4544A5
:1048D000006173636969007777772E3130306173D7
:1048E0006B2E6E657400000008490008000000206F
:1048F00050000000B437000858490008500000205C
:10490000680E0000C4370008000000000024F40016
:10491000D1480008000000009107000800000000D6
:10492000F506000800000000CC48000850000020F8
:1049300080000000400000000100000000040000B2
:10494000DD2A0008CD2A0008ED2A0008000000003A
:0849500002010000100000004C
:0400000508000131BD
:00000001FF
